{
  "contractName": "Trace_Source",
  "abi": [
    {
      "constant": false,
      "inputs": [],
      "name": "initGoods",
      "outputs": [],
      "payable": false,
      "stateMutability": "nonpayable",
      "type": "function",
      "signature": "0xcdc1514f"
    },
    {
      "constant": true,
      "inputs": [],
      "name": "good",
      "outputs": [
        {
          "name": "",
          "type": "string"
        }
      ],
      "payable": false,
      "stateMutability": "view",
      "type": "function",
      "signature": "0xaa8fb40b"
    },
    {
      "constant": false,
      "inputs": [],
      "name": "initaddr",
      "outputs": [],
      "payable": false,
      "stateMutability": "nonpayable",
      "type": "function",
      "signature": "0xed64c6c9"
    },
    {
      "constant": true,
      "inputs": [],
      "name": "addrindex",
      "outputs": [
        {
          "name": "",
          "type": "uint256"
        }
      ],
      "payable": false,
      "stateMutability": "view",
      "type": "function",
      "signature": "0xccc679f7"
    },
    {
      "constant": true,
      "inputs": [
        {
          "name": "id",
          "type": "uint256"
        }
      ],
      "name": "addrvalue",
      "outputs": [
        {
          "name": "",
          "type": "address"
        }
      ],
      "payable": false,
      "stateMutability": "view",
      "type": "function",
      "signature": "0x7c383613"
    },
    {
      "constant": true,
      "inputs": [
        {
          "name": "_string",
          "type": "string"
        }
      ],
      "name": "goodcheck",
      "outputs": [
        {
          "name": "",
          "type": "string"
        }
      ],
      "payable": false,
      "stateMutability": "view",
      "type": "function",
      "signature": "0xbc1e22c6"
    },
    {
      "constant": true,
      "inputs": [
        {
          "name": "_string",
          "type": "string"
        },
        {
          "name": "_id",
          "type": "uint256"
        }
      ],
      "name": "checkgood",
      "outputs": [
        {
          "name": "",
          "type": "string"
        }
      ],
      "payable": false,
      "stateMutability": "view",
      "type": "function",
      "signature": "0x829c9feb"
    },
    {
      "constant": false,
      "inputs": [
        {
          "name": "_address",
          "type": "address"
        },
        {
          "name": "_place",
          "type": "string"
        }
      ],
      "name": "initmarket",
      "outputs": [
        {
          "name": "",
          "type": "uint256"
        }
      ],
      "payable": false,
      "stateMutability": "nonpayable",
      "type": "function",
      "signature": "0x45bf9bb0"
    },
    {
      "constant": true,
      "inputs": [
        {
          "name": "sign",
          "type": "bytes"
        },
        {
          "name": "hash",
          "type": "bytes32"
        }
      ],
      "name": "CheckSign",
      "outputs": [
        {
          "name": "",
          "type": "address"
        }
      ],
      "payable": false,
      "stateMutability": "view",
      "type": "function",
      "signature": "0xd249d3b6"
    },
    {
      "constant": true,
      "inputs": [],
      "name": "showcount",
      "outputs": [
        {
          "name": "",
          "type": "uint256"
        }
      ],
      "payable": false,
      "stateMutability": "view",
      "type": "function",
      "signature": "0x296b292e"
    },
    {
      "constant": true,
      "inputs": [
        {
          "name": "_address",
          "type": "address"
        },
        {
          "name": "_to",
          "type": "address"
        },
        {
          "name": "_goodname",
          "type": "string"
        }
      ],
      "name": "showtran",
      "outputs": [
        {
          "name": "",
          "type": "uint256"
        }
      ],
      "payable": false,
      "stateMutability": "view",
      "type": "function",
      "signature": "0x9a01d19b"
    },
    {
      "constant": true,
      "inputs": [
        {
          "name": "_address",
          "type": "address"
        },
        {
          "name": "_goodindex",
          "type": "uint256"
        },
        {
          "name": "_goodname",
          "type": "string"
        }
      ],
      "name": "showamount",
      "outputs": [
        {
          "name": "",
          "type": "uint256"
        }
      ],
      "payable": false,
      "stateMutability": "view",
      "type": "function",
      "signature": "0xc1b410bd"
    },
    {
      "constant": false,
      "inputs": [
        {
          "name": "_address",
          "type": "address"
        }
      ],
      "name": "initgoodkind1",
      "outputs": [],
      "payable": false,
      "stateMutability": "nonpayable",
      "type": "function",
      "signature": "0x18ce5f8a"
    },
    {
      "constant": false,
      "inputs": [
        {
          "name": "_address",
          "type": "address"
        }
      ],
      "name": "initgoodkind2",
      "outputs": [],
      "payable": false,
      "stateMutability": "nonpayable",
      "type": "function",
      "signature": "0x12572f2a"
    },
    {
      "constant": false,
      "inputs": [
        {
          "name": "_address",
          "type": "address"
        }
      ],
      "name": "initgoodkind3",
      "outputs": [],
      "payable": false,
      "stateMutability": "nonpayable",
      "type": "function",
      "signature": "0x91a828df"
    },
    {
      "constant": false,
      "inputs": [
        {
          "name": "_address",
          "type": "address"
        }
      ],
      "name": "initgoodkind4",
      "outputs": [],
      "payable": false,
      "stateMutability": "nonpayable",
      "type": "function",
      "signature": "0x6459bf04"
    },
    {
      "constant": false,
      "inputs": [
        {
          "name": "_role",
          "type": "uint256"
        },
        {
          "name": "_address",
          "type": "address"
        },
        {
          "name": "_place",
          "type": "string"
        }
      ],
      "name": "NewNode",
      "outputs": [
        {
          "name": "",
          "type": "uint256"
        }
      ],
      "payable": false,
      "stateMutability": "nonpayable",
      "type": "function",
      "signature": "0xb869f534"
    },
    {
      "constant": false,
      "inputs": [
        {
          "name": "_from",
          "type": "address"
        },
        {
          "name": "_to",
          "type": "address"
        },
        {
          "name": "_GoodIndex",
          "type": "uint256"
        },
        {
          "name": "_GoodName",
          "type": "string"
        },
        {
          "name": "_account",
          "type": "uint256"
        },
        {
          "name": "_GoodKind",
          "type": "uint256"
        }
      ],
      "name": "transport",
      "outputs": [
        {
          "name": "",
          "type": "string"
        }
      ],
      "payable": false,
      "stateMutability": "nonpayable",
      "type": "function",
      "signature": "0xd137d38a"
    },
    {
      "constant": false,
      "inputs": [
        {
          "name": "_address",
          "type": "address"
        },
        {
          "name": "_GoodIndex",
          "type": "uint256"
        },
        {
          "name": "_GoodName",
          "type": "string"
        },
        {
          "name": "_product",
          "type": "uint256"
        },
        {
          "name": "_good",
          "type": "uint256"
        },
        {
          "name": "_GoodId",
          "type": "uint256"
        }
      ],
      "name": "product",
      "outputs": [
        {
          "name": "",
          "type": "uint256"
        }
      ],
      "payable": false,
      "stateMutability": "nonpayable",
      "type": "function",
      "signature": "0x0e8383dc"
    },
    {
      "constant": true,
      "inputs": [
        {
          "name": "_GoodName",
          "type": "string"
        },
        {
          "name": "_GoodId",
          "type": "uint256"
        }
      ],
      "name": "trace_source",
      "outputs": [
        {
          "name": "",
          "type": "string"
        }
      ],
      "payable": false,
      "stateMutability": "view",
      "type": "function",
      "signature": "0x672ac300"
    },
    {
      "constant": true,
      "inputs": [
        {
          "name": "_GoodName",
          "type": "string"
        }
      ],
      "name": "source",
      "outputs": [
        {
          "name": "",
          "type": "string"
        }
      ],
      "payable": false,
      "stateMutability": "view",
      "type": "function",
      "signature": "0x3f61716c"
    },
    {
      "constant": true,
      "inputs": [
        {
          "name": "sig",
          "type": "bytes"
        }
      ],
      "name": "splitSignature",
      "outputs": [
        {
          "name": "v",
          "type": "uint8"
        },
        {
          "name": "r",
          "type": "bytes32"
        },
        {
          "name": "s",
          "type": "bytes32"
        }
      ],
      "payable": false,
      "stateMutability": "pure",
      "type": "function",
      "signature": "0xa7bb5803"
    },
    {
      "constant": true,
      "inputs": [
        {
          "name": "message",
          "type": "bytes32"
        },
        {
          "name": "sig",
          "type": "bytes"
        }
      ],
      "name": "recoverSigner",
      "outputs": [
        {
          "name": "",
          "type": "address"
        }
      ],
      "payable": false,
      "stateMutability": "pure",
      "type": "function",
      "signature": "0x97aba7f9"
    },
    {
      "constant": false,
      "inputs": [
        {
          "name": "_address1",
          "type": "address"
        },
        {
          "name": "_address2",
          "type": "address"
        },
        {
          "name": "_address3",
          "type": "address"
        },
        {
          "name": "_address4",
          "type": "address"
        },
        {
          "name": "_address5",
          "type": "address"
        }
      ],
      "name": "tiaoshi",
      "outputs": [],
      "payable": false,
      "stateMutability": "nonpayable",
      "type": "function",
      "signature": "0x758113ef"
    },
    {
      "constant": false,
      "inputs": [],
      "name": "decode",
      "outputs": [
        {
          "name": "",
          "type": "address"
        }
      ],
      "payable": false,
      "stateMutability": "nonpayable",
      "type": "function",
      "signature": "0xc0f8940c"
    },
    {
      "constant": false,
      "inputs": [
        {
          "name": "data",
          "type": "bytes"
        },
        {
          "name": "start",
          "type": "uint256"
        },
        {
          "name": "len",
          "type": "uint256"
        }
      ],
      "name": "slice",
      "outputs": [
        {
          "name": "",
          "type": "bytes"
        }
      ],
      "payable": false,
      "stateMutability": "nonpayable",
      "type": "function",
      "signature": "0xe0041396"
    },
    {
      "constant": false,
      "inputs": [
        {
          "name": "r",
          "type": "bytes32"
        },
        {
          "name": "s",
          "type": "bytes32"
        },
        {
          "name": "v1",
          "type": "bytes1"
        }
      ],
      "name": "ecrecoverDecode",
      "outputs": [
        {
          "name": "addr",
          "type": "address"
        }
      ],
      "payable": false,
      "stateMutability": "nonpayable",
      "type": "function",
      "signature": "0x9f9d5793"
    },
    {
      "constant": false,
      "inputs": [
        {
          "name": "source",
          "type": "bytes"
        }
      ],
      "name": "bytesToBytes32",
      "outputs": [
        {
          "name": "result",
          "type": "bytes32"
        }
      ],
      "payable": false,
      "stateMutability": "nonpayable",
      "type": "function",
      "signature": "0xbfe370d9"
    }
  ],
  "bytecode": "0x608060405234801561001057600080fd5b50615ffa80620000216000396000f3fe60806040526004361061016a576000357c0100000000000000000000000000000000000000000000000000000000900463ffffffff1680630e8383dc1461016f57806312572f2a1461029357806318ce5f8a146102e4578063296b292e146103355780633f61716c1461036057806345bf9bb0146104a15780636459bf041461059d578063672ac300146105ee578063758113ef146107395780637c3836131461080a578063829c9feb1461088557806391a828df146109d057806397aba7f914610a215780639a01d19b14610b335780639f9d579314610c4f578063a7bb580314610d00578063aa8fb40b14610df0578063b869f53414610e80578063bc1e22c614610f86578063bfe370d9146110c7578063c0f8940c146111a3578063c1b410bd146111fa578063ccc679f714611300578063cdc1514f1461132b578063d137d38a14611342578063d249d3b6146114e1578063e0041396146115f3578063ed64c6c914611748575b600080fd5b34801561017b57600080fd5b5061027d600480360360c081101561019257600080fd5b81019080803573ffffffffffffffffffffffffffffffffffffffff16906020019092919080359060200190929190803590602001906401000000008111156101d957600080fd5b8201836020820111156101eb57600080fd5b8035906020019184600183028401116401000000008311171561020d57600080fd5b91908080601f016020809104026020016040519081016040528093929190818152602001838380828437600081840152601f19601f82011690508083019250505050505050919291929080359060200190929190803590602001909291908035906020019092919050505061175f565b6040518082815260200191505060405180910390f35b34801561029f57600080fd5b506102e2600480360360208110156102b657600080fd5b81019080803573ffffffffffffffffffffffffffffffffffffffff169060200190929190505050611d1b565b005b3480156102f057600080fd5b506103336004803603602081101561030757600080fd5b81019080803573ffffffffffffffffffffffffffffffffffffffff169060200190929190505050611dbb565b005b34801561034157600080fd5b5061034a611e5b565b6040518082815260200191505060405180910390f35b34801561036c57600080fd5b506104266004803603602081101561038357600080fd5b81019080803590602001906401000000008111156103a057600080fd5b8201836020820111156103b257600080fd5b803590602001918460018302840111640100000000831117156103d457600080fd5b91908080601f016020809104026020016040519081016040528093929190818152602001838380828437600081840152601f19601f820116905080830192505050505050509192919290505050611e65565b6040518080602001828103825283818151815260200191508051906020019080838360005b8381101561046657808201518184015260208101905061044b565b50505050905090810190601f1680156104935780820380516001836020036101000a031916815260200191505b509250505060405180910390f35b3480156104ad57600080fd5b50610587600480360360408110156104c457600080fd5b81019080803573ffffffffffffffffffffffffffffffffffffffff1690602001909291908035906020019064010000000081111561050157600080fd5b82018360208201111561051357600080fd5b8035906020019184600183028401116401000000008311171561053557600080fd5b91908080601f016020809104026020016040519081016040528093929190818152602001838380828437600081840152601f19601f82011690508083019250505050505050919291929050505061223b565b6040518082815260200191505060405180910390f35b3480156105a957600080fd5b506105ec600480360360208110156105c057600080fd5b81019080803573ffffffffffffffffffffffffffffffffffffffff169060200190929190505050612475565b005b3480156105fa57600080fd5b506106be6004803603604081101561061157600080fd5b810190808035906020019064010000000081111561062e57600080fd5b82018360208201111561064057600080fd5b8035906020019184600183028401116401000000008311171561066257600080fd5b91908080601f016020809104026020016040519081016040528093929190818152602001838380828437600081840152601f19601f82011690508083019250505050505050919291929080359060200190929190505050612515565b6040518080602001828103825283818151815260200191508051906020019080838360005b838110156106fe5780820151818401526020810190506106e3565b50505050905090810190601f16801561072b5780820380516001836020036101000a031916815260200191505b509250505060405180910390f35b34801561074557600080fd5b50610808600480360360a081101561075c57600080fd5b81019080803573ffffffffffffffffffffffffffffffffffffffff169060200190929190803573ffffffffffffffffffffffffffffffffffffffff169060200190929190803573ffffffffffffffffffffffffffffffffffffffff169060200190929190803573ffffffffffffffffffffffffffffffffffffffff169060200190929190803573ffffffffffffffffffffffffffffffffffffffff169060200190929190505050613b50565b005b34801561081657600080fd5b506108436004803603602081101561082d57600080fd5b8101908080359060200190929190505050613fb8565b604051808273ffffffffffffffffffffffffffffffffffffffff1673ffffffffffffffffffffffffffffffffffffffff16815260200191505060405180910390f35b34801561089157600080fd5b50610955600480360360408110156108a857600080fd5b81019080803590602001906401000000008111156108c557600080fd5b8201836020820111156108d757600080fd5b803590602001918460018302840111640100000000831117156108f957600080fd5b91908080601f016020809104026020016040519081016040528093929190818152602001838380828437600081840152601f19601f82011690508083019250505050505050919291929080359060200190929190505050613ffb565b6040518080602001828103825283818151815260200191508051906020019080838360005b8381101561099557808201518184015260208101905061097a565b50505050905090810190601f1680156109c25780820380516001836020036101000a031916815260200191505b509250505060405180910390f35b3480156109dc57600080fd5b50610a1f600480360360208110156109f357600080fd5b81019080803573ffffffffffffffffffffffffffffffffffffffff169060200190929190505050614120565b005b348015610a2d57600080fd5b50610af160048036036040811015610a4457600080fd5b810190808035906020019092919080359060200190640100000000811115610a6b57600080fd5b820183602082011115610a7d57600080fd5b80359060200191846001830284011164010000000083111715610a9f57600080fd5b91908080601f016020809104026020016040519081016040528093929190818152602001838380828437600081840152601f19601f8201169050808301925050505050505091929192905050506141c0565b604051808273ffffffffffffffffffffffffffffffffffffffff1673ffffffffffffffffffffffffffffffffffffffff16815260200191505060405180910390f35b348015610b3f57600080fd5b50610c3960048036036060811015610b5657600080fd5b81019080803573ffffffffffffffffffffffffffffffffffffffff169060200190929190803573ffffffffffffffffffffffffffffffffffffffff16906020019092919080359060200190640100000000811115610bb357600080fd5b820183602082011115610bc557600080fd5b80359060200191846001830284011164010000000083111715610be757600080fd5b91908080601f016020809104026020016040519081016040528093929190818152602001838380828437600081840152601f19601f820116905080830192505050505050509192919290505050614247565b6040518082815260200191505060405180910390f35b348015610c5b57600080fd5b50610cbe60048036036060811015610c7257600080fd5b81019080803590602001909291908035906020019092919080357effffffffffffffffffffffffffffffffffffffffffffffffffffffffffffff1916906020019092919050505061433e565b604051808273ffffffffffffffffffffffffffffffffffffffff1673ffffffffffffffffffffffffffffffffffffffff16815260200191505060405180910390f35b348015610d0c57600080fd5b50610dc660048036036020811015610d2357600080fd5b8101908080359060200190640100000000811115610d4057600080fd5b820183602082011115610d5257600080fd5b80359060200191846001830284011164010000000083111715610d7457600080fd5b91908080601f016020809104026020016040519081016040528093929190818152602001838380828437600081840152601f19601f8201169050808301925050505050505091929192905050506143fb565b604051808460ff1660ff168152602001838152602001828152602001935050505060405180910390f35b348015610dfc57600080fd5b50610e0561443b565b6040518080602001828103825283818151815260200191508051906020019080838360005b83811015610e45578082015181840152602081019050610e2a565b50505050905090810190601f168015610e725780820380516001836020036101000a031916815260200191505b509250505060405180910390f35b348015610e8c57600080fd5b50610f7060048036036060811015610ea357600080fd5b8101908080359060200190929190803573ffffffffffffffffffffffffffffffffffffffff16906020019092919080359060200190640100000000811115610eea57600080fd5b820183602082011115610efc57600080fd5b80359060200191846001830284011164010000000083111715610f1e57600080fd5b91908080601f016020809104026020016040519081016040528093929190818152602001838380828437600081840152601f19601f8201169050808301925050505050505091929192905050506145cc565b6040518082815260200191505060405180910390f35b348015610f9257600080fd5b5061104c60048036036020811015610fa957600080fd5b8101908080359060200190640100000000811115610fc657600080fd5b820183602082011115610fd857600080fd5b80359060200191846001830284011164010000000083111715610ffa57600080fd5b91908080601f016020809104026020016040519081016040528093929190818152602001838380828437600081840152601f19601f820116905080830192505050505050509192919290505050614817565b6040518080602001828103825283818151815260200191508051906020019080838360005b8381101561108c578082015181840152602081019050611071565b50505050905090810190601f1680156110b95780820380516001836020036101000a031916815260200191505b509250505060405180910390f35b3480156110d357600080fd5b5061118d600480360360208110156110ea57600080fd5b810190808035906020019064010000000081111561110757600080fd5b82018360208201111561111957600080fd5b8035906020019184600183028401116401000000008311171561113b57600080fd5b91908080601f016020809104026020016040519081016040528093929190818152602001838380828437600081840152601f19601f820116905080830192505050505050509192919290505050614924565b6040518082815260200191505060405180910390f35b3480156111af57600080fd5b506111b8614932565b604051808273ffffffffffffffffffffffffffffffffffffffff1673ffffffffffffffffffffffffffffffffffffffff16815260200191505060405180910390f35b34801561120657600080fd5b506112ea6004803603606081101561121d57600080fd5b81019080803573ffffffffffffffffffffffffffffffffffffffff169060200190929190803590602001909291908035906020019064010000000081111561126457600080fd5b82018360208201111561127657600080fd5b8035906020019184600183028401116401000000008311171561129857600080fd5b91908080601f016020809104026020016040519081016040528093929190818152602001838380828437600081840152601f19601f820116905080830192505050505050509192919290505050614a4b565b6040518082815260200191505060405180910390f35b34801561130c57600080fd5b50611315614b16565b6040518082815260200191505060405180910390f35b34801561133757600080fd5b50611340614b23565b005b34801561134e57600080fd5b50611466600480360360c081101561136557600080fd5b81019080803573ffffffffffffffffffffffffffffffffffffffff169060200190929190803573ffffffffffffffffffffffffffffffffffffffff16906020019092919080359060200190929190803590602001906401000000008111156113cc57600080fd5b8201836020820111156113de57600080fd5b8035906020019184600183028401116401000000008311171561140057600080fd5b91908080601f016020809104026020016040519081016040528093929190818152602001838380828437600081840152601f19601f8201169050808301925050505050505091929192908035906020019092919080359060200190929190505050614cf9565b6040518080602001828103825283818151815260200191508051906020019080838360005b838110156114a657808201518184015260208101905061148b565b50505050905090810190601f1680156114d35780820380516001836020036101000a031916815260200191505b509250505060405180910390f35b3480156114ed57600080fd5b506115b16004803603604081101561150457600080fd5b810190808035906020019064010000000081111561152157600080fd5b82018360208201111561153357600080fd5b8035906020019184600183028401116401000000008311171561155557600080fd5b91908080601f016020809104026020016040519081016040528093929190818152602001838380828437600081840152601f19601f82011690508083019250505050505050919291929080359060200190929190505050615701565b604051808273ffffffffffffffffffffffffffffffffffffffff1673ffffffffffffffffffffffffffffffffffffffff16815260200191505060405180910390f35b3480156115ff57600080fd5b506116cd6004803603606081101561161657600080fd5b810190808035906020019064010000000081111561163357600080fd5b82018360208201111561164557600080fd5b8035906020019184600183028401116401000000008311171561166757600080fd5b91908080601f016020809104026020016040519081016040528093929190818152602001838380828437600081840152601f19601f8201169050808301925050505050505091929192908035906020019092919080359060200190929190505050615720565b6040518080602001828103825283818151815260200191508051906020019080838360005b8381101561170d5780820151818401526020810190506116f2565b50505050905090810190601f16801561173a5780820380516001836020036101000a031916815260200191505b509250505060405180910390f35b34801561175457600080fd5b5061175d615819565b005b600083600660008973ffffffffffffffffffffffffffffffffffffffff1673ffffffffffffffffffffffffffffffffffffffff1681526020019081526020016000206004016000888152602001908152602001600020600001866040518082805190602001908083835b6020831015156117ee57805182526020820191506020810190506020830392506117c9565b6001836020036101000a03801982511681845116808217855250505050505090500191505090815260200160405180910390205410156118315760009050611d11565b83600660008973ffffffffffffffffffffffffffffffffffffffff1673ffffffffffffffffffffffffffffffffffffffff1681526020019081526020016000206004016000888152602001908152602001600020600001866040518082805190602001908083835b6020831015156118be5780518252602082019150602081019050602083039250611899565b6001836020036101000a03801982511681845116808217855250505050505090500191505090815260200160405180910390206000828254039250508190555060606119f4600660008a73ffffffffffffffffffffffffffffffffffffffff1673ffffffffffffffffffffffffffffffffffffffff16815260200190815260200160002060050160008581526020019081526020016000208054600181600116156101000203166002900480601f0160208091040260200160405190810160405280929190818152602001828054600181600116156101000203166002900480156119ea5780601f106119bf576101008083540402835291602001916119ea565b820191906000526020600020905b8154815290600101906020018083116119cd57829003601f168201915b5050505050615862565b905083600660008a73ffffffffffffffffffffffffffffffffffffffff1673ffffffffffffffffffffffffffffffffffffffff1681526020019081526020016000206004016000898152602001908152602001600020600001826040518082805190602001908083835b602083101515611a835780518252602082019150602081019050602083039250611a5e565b6001836020036101000a038019825116818451168082178552505050505050905001915050908152602001604051809103902060008282540192505081905550856003826040518082805190602001908083835b602083101515611afc5780518252602082019150602081019050602083039250611ad7565b6001836020036101000a03801982511681845116808217855250505050505090500191505090815260200160405180910390209080519060200190611b42929190615cb0565b50436005826040518082805190602001908083835b602083101515611b7c5780518252602082019150602081019050602083039250611b57565b6001836020036101000a0380198251168184511680821785525050505050509050019150509081526020016040518091039020819055506004866040518082805190602001908083835b602083101515611beb5780518252602082019150602081019050602083039250611bc6565b6001836020036101000a0380198251168184511680821785525050505050509050019150509081526020016040518091039020819080600181540180825580915050906001820390600052602060002001600090919290919091509080519060200190611c59929190615cb0565b505042600660008a73ffffffffffffffffffffffffffffffffffffffff1673ffffffffffffffffffffffffffffffffffffffff168152602001908152602001600020600601826040518082805190602001908083835b602083101515611cd45780518252602082019150602081019050602083039250611caf565b6001836020036101000a03801982511681845116808217855250505050505090500191505090815260200160405180910390208190555060019150505b9695505050505050565b6040805190810160405280600581526020017f6170706c65000000000000000000000000000000000000000000000000000000815250600660008373ffffffffffffffffffffffffffffffffffffffff1673ffffffffffffffffffffffffffffffffffffffff16815260200190815260200160002060050160008081526020019081526020016000209080519060200190611db7929190615cb0565b5050565b6040805190810160405280600481526020017f7365656400000000000000000000000000000000000000000000000000000000815250600660008373ffffffffffffffffffffffffffffffffffffffff1673ffffffffffffffffffffffffffffffffffffffff16815260200190815260200160002060050160008081526020019081526020016000209080519060200190611e57929190615cb0565b5050565b6000600154905090565b606080600a604051908082528060200260200182016040528015611e9d57816020015b6060815260200190600190039081611e885790505b50905082816000815181101515611eb057fe5b90602001906020020181905250600080905060008090506000600190505b600060048584815181101515611ee057fe5b906020019060200201516040518082805190602001908083835b602083101515611f1f5780518252602082019150602081019050602083039250611efa565b6001836020036101000a03801982511681845116808217855250505050505090500191505090815260200160405180910390208054905014151561216c576000925060008090505b60048584815181101515611f7757fe5b906020019060200201516040518082805190602001908083835b602083101515611fb65780518252602082019150602081019050602083039250611f91565b6001836020036101000a03801982511681845116808217855250505050505090500191505090815260200160405180910390208054905081101561215e576004858481518110151561200457fe5b906020019060200201516040518082805190602001908083835b602083101515612043578051825260208201915060208101905060208303925061201e565b6001836020036101000a03801982511681845116808217855250505050505090500191505090815260200160405180910390208481548110151561208357fe5b906000526020600020018054600181600116156101000203166002900480601f0160208091040260200160405190810160405280929190818152602001828054600181600116156101000203166002900480156121215780601f106120f657610100808354040283529160200191612121565b820191906000526020600020905b81548152906001019060200180831161210457829003601f168201915b5050505050858381518110151561213457fe5b90602001906020020181905250818060010192505083806001019450508080600101915050611f67565b508180600101925050611ece565b606060206040519081016040528060008152509050600093505b6121b7858581518110151561219757fe5b906020019060200201516020604051908101604052806000815250615891565b151561222e576121de8186868151811015156121cf57fe5b90602001906020020151615984565b905061221f816040805190810160405280600181526020017f2000000000000000000000000000000000000000000000000000000000000000815250615984565b90508380600101945050612186565b8095505050505050919050565b600080600090505b6002805490508110156122d4578373ffffffffffffffffffffffffffffffffffffffff1660028281548110151561227657fe5b9060005260206000200160009054906101000a900473ffffffffffffffffffffffffffffffffffffffff1673ffffffffffffffffffffffffffffffffffffffff1614156122c757600091505061246f565b8080600101915050612243565b506005600660008573ffffffffffffffffffffffffffffffffffffffff1673ffffffffffffffffffffffffffffffffffffffff1681526020019081526020016000206000018190555082600660008573ffffffffffffffffffffffffffffffffffffffff1673ffffffffffffffffffffffffffffffffffffffff16815260200190815260200160002060010160006101000a81548173ffffffffffffffffffffffffffffffffffffffff021916908373ffffffffffffffffffffffffffffffffffffffff16021790555081600660008573ffffffffffffffffffffffffffffffffffffffff1673ffffffffffffffffffffffffffffffffffffffff16815260200190815260200160002060020190805190602001906123f4929190615cb0565b5082600260016002805490500381548110151561240d57fe5b9060005260206000200160006101000a81548173ffffffffffffffffffffffffffffffffffffffff021916908373ffffffffffffffffffffffffffffffffffffffff160217905550600280548091906001016124699190615d30565b50600190505b92915050565b6040805190810160405280600881526020017f6170706c656a616d000000000000000000000000000000000000000000000000815250600660008373ffffffffffffffffffffffffffffffffffffffff1673ffffffffffffffffffffffffffffffffffffffff16815260200190815260200160002060050160008081526020019081526020016000209080519060200190612511929190615cb0565b5050565b606080600a60405190808252806020026020018201604052801561254d57816020015b60608152602001906001900390816125385790505b5090506060600a6040519080825280602002602001820160405280156125825781602001602082028038833980820191505090505b50905060608590508583600081518110151561259a57fe5b906020019060200201819052506000600190505b6125d06125ba83614817565b6020604051908101604052806000815250615891565b151561260a576125df82614817565b91508184828151811015156125f057fe5b9060200190602002018190525080806001019150506125ae565b60008090505b612641858281518110151561262157fe5b906020019060200201516020604051908101604052806000815250615891565b1515612654578080600101915050612610565b600080905081806001900392505060008090505b82811115156128465760008090505b6002805490508110156128385760006006600060028481548110151561269957fe5b9060005260206000200160009054906101000a900473ffffffffffffffffffffffffffffffffffffffff1673ffffffffffffffffffffffffffffffffffffffff1673ffffffffffffffffffffffffffffffffffffffff16815260200190815260200160002060040160008c81526020019081526020016000206000018984870381518110151561272557fe5b906020019060200201516040518082805190602001908083835b602083101515612764578051825260208201915060208101905060208303925061273f565b6001836020036101000a038019825116818451168082178552505050505050905001915050908152602001604051809103902054111561282b576002818154811015156127ad57fe5b9060005260206000200160009054906101000a900473ffffffffffffffffffffffffffffffffffffffff1687848151811015156127e657fe5b9060200190602002019073ffffffffffffffffffffffffffffffffffffffff16908173ffffffffffffffffffffffffffffffffffffffff168152505082806001019350505b8080600101915050612677565b508080600101915050612668565b50600092506060602060405190810160405280600081525090505b600073ffffffffffffffffffffffffffffffffffffffff16868581518110151561288757fe5b9060200190602002015173ffffffffffffffffffffffffffffffffffffffff16141515613b3f57606086600186018151811015156128c157fe5b9060200190602002015173ffffffffffffffffffffffffffffffffffffffff1687868151811015156128ef57fe5b9060200190602002015173ffffffffffffffffffffffffffffffffffffffff16141561323f57612a3a6040805190810160405280600881526020017f20e7949fe4baa720000000000000000000000000000000000000000000000000815250612a35600660008b8a81518110151561296357fe5b9060200190602002015173ffffffffffffffffffffffffffffffffffffffff1673ffffffffffffffffffffffffffffffffffffffff1681526020019081526020016000206006018b60018a8a03038151811015156129bd57fe5b906020019060200201516040518082805190602001908083835b6020831015156129fc57805182526020820191506020810190506020830392506129d7565b6001836020036101000a038019825116818451168082178552505050505050905001915050908152602001604051809103902054615b57565b615984565b9050612b3782600660008a89815181101515612a5257fe5b9060200190602002015173ffffffffffffffffffffffffffffffffffffffff1673ffffffffffffffffffffffffffffffffffffffff1681526020019081526020016000206002018054600181600116156101000203166002900480601f016020809104026020016040519081016040528092919081815260200182805460018160011615610100020316600290048015612b2d5780601f10612b0257610100808354040283529160200191612b2d565b820191906000526020600020905b815481529060010190602001808311612b1057829003601f168201915b5050505050615984565b9150612b438282615984565b9150612b84826040805190810160405280600181526020017f2000000000000000000000000000000000000000000000000000000000000000815250615984565b9150612ba98289878703815181101515612b9a57fe5b90602001906020020151615984565b9150612bea826040805190810160405280600181526020017f2000000000000000000000000000000000000000000000000000000000000000815250615984565b9150612c8282612c7d60058b898903815181101515612c0557fe5b906020019060200201516040518082805190602001908083835b602083101515612c445780518252602082019150602081019050602083039250612c1f565b6001836020036101000a038019825116818451168082178552505050505050905001915050908152602001604051809103902054615b57565b615984565b9150612cc3826040805190810160405280600181526020017f2000000000000000000000000000000000000000000000000000000000000000815250615984565b9150600073ffffffffffffffffffffffffffffffffffffffff168760028701815181101515612cee57fe5b9060200190602002015173ffffffffffffffffffffffffffffffffffffffff161415612e2457612e1282600660008a60018a01815181101515612d2d57fe5b9060200190602002015173ffffffffffffffffffffffffffffffffffffffff1673ffffffffffffffffffffffffffffffffffffffff1681526020019081526020016000206002018054600181600116156101000203166002900480601f016020809104026020016040519081016040528092919081815260200182805460018160011615610100020316600290048015612e085780601f10612ddd57610100808354040283529160200191612e08565b820191906000526020600020905b815481529060010190602001808311612deb57829003601f168201915b5050505050615984565b91508198505050505050505050613b4a565b612fa36040805190810160405280600881526020017f20e8bf90e8be9320000000000000000000000000000000000000000000000000815250612f9e600660008b8a815181101515612e7257fe5b9060200190602002015173ffffffffffffffffffffffffffffffffffffffff1673ffffffffffffffffffffffffffffffffffffffff16815260200190815260200160002060030160008b60028b01815181101515612ecc57fe5b9060200190602002015173ffffffffffffffffffffffffffffffffffffffff1673ffffffffffffffffffffffffffffffffffffffff1681526020019081526020016000206000018b60018a8a0303815181101515612f2657fe5b906020019060200201516040518082805190602001908083835b602083101515612f655780518252602082019150602081019050602083039250612f40565b6001836020036101000a038019825116818451168082178552505050505050905001915050908152602001604051809103902054615b57565b615984565b90506130a082600660008a89815181101515612fbb57fe5b9060200190602002015173ffffffffffffffffffffffffffffffffffffffff1673ffffffffffffffffffffffffffffffffffffffff1681526020019081526020016000206002018054600181600116156101000203166002900480601f0160208091040260200160405190810160405280929190818152602001828054600181600116156101000203166002900480156130965780601f1061306b57610100808354040283529160200191613096565b820191906000526020600020905b81548152906001019060200180831161307957829003601f168201915b5050505050615984565b91506130ac8282615984565b91506130ed826040805190810160405280600181526020017f2000000000000000000000000000000000000000000000000000000000000000815250615984565b9150613115828960018888030381518110151561310657fe5b90602001906020020151615984565b9150613156826040805190810160405280600181526020017f2000000000000000000000000000000000000000000000000000000000000000815250615984565b91506131f1826131ec600160058c8a8a0381518110151561317357fe5b906020019060200201516040518082805190602001908083835b6020831015156131b2578051825260208201915060208101905060208303925061318d565b6001836020036101000a03801982511681845116808217855250505050505090500191505090815260200160405180910390205401615b57565b615984565b9150613232826040805190810160405280600181526020017f2000000000000000000000000000000000000000000000000000000000000000815250615984565b9150600285019450613b39565b600073ffffffffffffffffffffffffffffffffffffffff16876001870181518110151561326857fe5b9060200190602002015173ffffffffffffffffffffffffffffffffffffffff16141561351b5761338982600660008a898151811015156132a457fe5b9060200190602002015173ffffffffffffffffffffffffffffffffffffffff1673ffffffffffffffffffffffffffffffffffffffff1681526020019081526020016000206002018054600181600116156101000203166002900480601f01602080910402602001604051908101604052809291908181526020018280546001816001161561010002031660029004801561337f5780601f106133545761010080835404028352916020019161337f565b820191906000526020600020905b81548152906001019060200180831161336257829003601f168201915b5050505050615984565b91506133ca826040805190810160405280600181526020017f2000000000000000000000000000000000000000000000000000000000000000815250615984565b91506133ef82898787038151811015156133e057fe5b90602001906020020151615984565b9150613430826040805190810160405280600181526020017f2000000000000000000000000000000000000000000000000000000000000000815250615984565b91506134c8826134c360058b89890381518110151561344b57fe5b906020019060200201516040518082805190602001908083835b60208310151561348a5780518252602082019150602081019050602083039250613465565b6001836020036101000a038019825116818451168082178552505050505050905001915050908152602001604051809103902054615b57565b615984565b9150613509826040805190810160405280600181526020017f2000000000000000000000000000000000000000000000000000000000000000815250615984565b91508198505050505050505050613b4a565b600060066000898881518110151561352f57fe5b9060200190602002015173ffffffffffffffffffffffffffffffffffffffff1673ffffffffffffffffffffffffffffffffffffffff1681526020019081526020016000206006018987870381518110151561358657fe5b906020019060200201516040518082805190602001908083835b6020831015156135c557805182526020820191506020810190506020830392506135a0565b6001836020036101000a0380198251168184511680821785525050505050509050019150509081526020016040518091039020541115613728576137216040805190810160405280600881526020017f20e7949fe4baa72000000000000000000000000000000000000000000000000081525061371c600660008b8a81518110151561364d57fe5b9060200190602002015173ffffffffffffffffffffffffffffffffffffffff1673ffffffffffffffffffffffffffffffffffffffff1681526020019081526020016000206006018b8989038151811015156136a457fe5b906020019060200201516040518082805190602001908083835b6020831015156136e357805182526020820191506020810190506020830392506136be565b6001836020036101000a038019825116818451168082178552505050505050905001915050908152602001604051809103902054615b57565b615984565b90506138a7565b6138a46040805190810160405280600881526020017f20e8bf90e8be932000000000000000000000000000000000000000000000000081525061389f600660008b8a81518110151561377657fe5b9060200190602002015173ffffffffffffffffffffffffffffffffffffffff1673ffffffffffffffffffffffffffffffffffffffff16815260200190815260200160002060030160008b60018b018151811015156137d057fe5b9060200190602002015173ffffffffffffffffffffffffffffffffffffffff1673ffffffffffffffffffffffffffffffffffffffff1681526020019081526020016000206000018b89890381518110151561382757fe5b906020019060200201516040518082805190602001908083835b6020831015156138665780518252602082019150602081019050602083039250613841565b6001836020036101000a038019825116818451168082178552505050505050905001915050908152602001604051809103902054615b57565b615984565b90505b6139a282600660008a898151811015156138bd57fe5b9060200190602002015173ffffffffffffffffffffffffffffffffffffffff1673ffffffffffffffffffffffffffffffffffffffff1681526020019081526020016000206002018054600181600116156101000203166002900480601f0160208091040260200160405190810160405280929190818152602001828054600181600116156101000203166002900480156139985780601f1061396d57610100808354040283529160200191613998565b820191906000526020600020905b81548152906001019060200180831161397b57829003601f168201915b5050505050615984565b91506139ae8282615984565b91506139ef826040805190810160405280600181526020017f2000000000000000000000000000000000000000000000000000000000000000815250615984565b9150613a148289878703815181101515613a0557fe5b90602001906020020151615984565b9150613a55826040805190810160405280600181526020017f2000000000000000000000000000000000000000000000000000000000000000815250615984565b9150613aed82613ae860058b898903815181101515613a7057fe5b906020019060200201516040518082805190602001908083835b602083101515613aaf5780518252602082019150602081019050602083039250613a8a565b6001836020036101000a038019825116818451168082178552505050505050905001915050908152602001604051809103902054615b57565b615984565b9150613b2e826040805190810160405280600181526020017f2000000000000000000000000000000000000000000000000000000000000000815250615984565b915084806001019550505b50612861565b809750505050505050505b92915050565b613b58614b23565b613b60615819565b613bc8600186606060405190810160405280603181526020017fe58c97e4baace5b8822de9a1bae991abe79fb3e997a8e5869ce4baa7e59381e681526020017f89b9e58f91e5b882e59cbae585ace58fb80000000000000000000000000000008152506145cc565b50613bd285611dbb565b613bf4856000602060405190810160405280600081525060006064600061175f565b50613c5d600285606060405190810160405280602881526020017fe58c97e4baace5b8822de6988ce5b9b3e58cbae78795e58d97e88bb9e69e9ce781526020017fa78de6a48de59bad0000000000000000000000000000000000000000000000008152506145cc565b50613c6784611d1b565b613ccf600384606060405190810160405280602e81526020017fe58c97e4baace5b8822de58c97e4baace5a4a9e591a8e9a39fe59381e58aa0e581526020017fb7a5e69c89e99990e585ace58fb80000000000000000000000000000000000008152506145cc565b50613cd983614120565b613d41600483606060405190810160405280603181526020017fe58c97e4baace5b8822de58c97e4baace4bb99e69e9ce6ba90e7bd90e5a4b4e981526020017fa39fe59381e69c89e99990e585ace58fb80000000000000000000000000000008152506145cc565b50613d4b82612475565b613db3600582606060405190810160405280602481526020017fe58c97e4baace5b8822de4baace5aea2e99a86e8b685e5b88228e58f8ce9be9981526020017fe5ba9729000000000000000000000000000000000000000000000000000000008152506145cc565b50613dbd81612475565b613e03858560006040805190810160405280600781526020017f736565643130310000000000000000000000000000000000000000000000000081525060506000614cf9565b50613e4b8460006040805190810160405280600781526020017f7365656431303200000000000000000000000000000000000000000000000000815250603c601e600061175f565b50613e92848460006040805190810160405280600881526020017f6170706c6531303300000000000000000000000000000000000000000000000081525060146000614cf9565b50613eda8360006040805190810160405280600881526020017f6170706c65313034000000000000000000000000000000000000000000000000815250600a601e600061175f565b50613f21838360006040805190810160405280600c81526020017f6170706c656d617368313035000000000000000000000000000000000000000081525060146000614cf9565b50613f698260006040805190810160405280600c81526020017f6170706c656d6173683130360000000000000000000000000000000000000000815250600f601e600061175f565b50613fb0828260006040805190810160405280600b81526020017f6170706c656a616d313037000000000000000000000000000000000000000000815250601d6000614cf9565b505050505050565b6000600282815481101515613fc957fe5b9060005260206000200160009054906101000a900473ffffffffffffffffffffffffffffffffffffffff169050919050565b60606004836040518082805190602001908083835b6020831015156140355780518252602082019150602081019050602083039250614010565b6001836020036101000a03801982511681845116808217855250505050505090500191505090815260200160405180910390208281548110151561407557fe5b906000526020600020018054600181600116156101000203166002900480601f0160208091040260200160405190810160405280929190818152602001828054600181600116156101000203166002900480156141135780601f106140e857610100808354040283529160200191614113565b820191906000526020600020905b8154815290600101906020018083116140f657829003601f168201915b5050505050905092915050565b6040805190810160405280600981526020017f6170706c656d6173680000000000000000000000000000000000000000000000815250600660008373ffffffffffffffffffffffffffffffffffffffff1673ffffffffffffffffffffffffffffffffffffffff168152602001908152602001600020600501600080815260200190815260200160002090805190602001906141bc929190615cb0565b5050565b6000806000806141cf856143fb565b92509250925060018684848460405160008152602001604052604051808581526020018460ff1660ff1681526020018381526020018281526020019450505050506020604051602081039080840390855afa158015614232573d6000803e3d6000fd5b50505060206040510351935050505092915050565b6000600660008573ffffffffffffffffffffffffffffffffffffffff1673ffffffffffffffffffffffffffffffffffffffff16815260200190815260200160002060030160008473ffffffffffffffffffffffffffffffffffffffff1673ffffffffffffffffffffffffffffffffffffffff168152602001908152602001600020600001826040518082805190602001908083835b60208310151561430157805182526020820191506020810190506020830392506142dc565b6001836020036101000a03801982511681845116808217855250505050505090500191505090815260200160405180910390205490509392505050565b600080601b837f0100000000000000000000000000000000000000000000000000000000000000900401905060018186866040516000815260200160405260405180807f4e03657aea45a94fc7d47ba826c8d667c0d1e6e33a64a036ec44f58fa12d6c458152506020018460ff1660ff16815260200183815260200182815260200193505050506020604051602081039080840390855afa1580156143e7573d6000803e3d6000fd5b505050602060405103519150509392505050565b60008060006041845114151561441057600080fd5b6020840151915060408401519050606084015160001a9250601b830182829250925092509193909250565b6060806020604051908101604052806000815250905060008090505b6000805490508110156145c45761451f8260008381548110151561447757fe5b906000526020600020018054600181600116156101000203166002900480601f0160208091040260200160405190810160405280929190818152602001828054600181600116156101000203166002900480156145155780601f106144ea57610100808354040283529160200191614515565b820191906000526020600020905b8154815290600101906020018083116144f857829003601f168201915b5050505050615984565b9150614560826040805190810160405280600181526020017f2000000000000000000000000000000000000000000000000000000000000000815250615984565b91506145748261456f83615b57565b615984565b91506145b5826040805190810160405280600181526020017f2000000000000000000000000000000000000000000000000000000000000000815250615984565b91508080600101915050614457565b508091505090565b6000808410156145df5760009050614810565b60008090505b600280549050811015614676578373ffffffffffffffffffffffffffffffffffffffff1660028281548110151561461857fe5b9060005260206000200160009054906101000a900473ffffffffffffffffffffffffffffffffffffffff1673ffffffffffffffffffffffffffffffffffffffff161415614669576000915050614810565b80806001019150506145e5565b5083600660008573ffffffffffffffffffffffffffffffffffffffff1673ffffffffffffffffffffffffffffffffffffffff1681526020019081526020016000206000018190555082600660008573ffffffffffffffffffffffffffffffffffffffff1673ffffffffffffffffffffffffffffffffffffffff16815260200190815260200160002060010160006101000a81548173ffffffffffffffffffffffffffffffffffffffff021916908373ffffffffffffffffffffffffffffffffffffffff16021790555081600660008573ffffffffffffffffffffffffffffffffffffffff1673ffffffffffffffffffffffffffffffffffffffff1681526020019081526020016000206002019080519060200190614795929190615cb0565b508260026001600280549050038154811015156147ae57fe5b9060005260206000200160006101000a81548173ffffffffffffffffffffffffffffffffffffffff021916908373ffffffffffffffffffffffffffffffffffffffff1602179055506002805480919060010161480a9190615d30565b50600190505b9392505050565b60606003826040518082805190602001908083835b602083101515614851578051825260208201915060208101905060208303925061482c565b6001836020036101000a03801982511681845116808217855250505050505090500191505090815260200160405180910390208054600181600116156101000203166002900480601f0160208091040260200160405190810160405280929190818152602001828054600181600116156101000203166002900480156149185780601f106148ed57610100808354040283529160200191614918565b820191906000526020600020905b8154815290600101906020018083116148fb57829003601f168201915b50505050509050919050565b600060208201519050919050565b60006060608060405190810160405280604181526020017ff4128988cbe7df8315440adde412a8955f7f5ff9a5468a791433727f82717a6781526020017f53bd71882079522207060b681fbd3f5623ee7ed66e33fc8e581f442acbcf6ab881526020016000815250905060006149b36149ae8360006020615720565b614924565b905060006149cb6149c684602080615720565b614924565b905060006149dc8460406001615720565b60008151811015156149ea57fe5b9060200101517f010000000000000000000000000000000000000000000000000000000000000090047f0100000000000000000000000000000000000000000000000000000000000000029050614a4283838361433e565b94505050505090565b6000600660008573ffffffffffffffffffffffffffffffffffffffff1673ffffffffffffffffffffffffffffffffffffffff1681526020019081526020016000206004016000848152602001908152602001600020600001826040518082805190602001908083835b602083101515614ad95780518252602082019150602081019050602083039250614ab4565b6001836020036101000a03801982511681845116808217855250505050505090500191505090815260200160405180910390205490509392505050565b6000600280549050905090565b6001604051908082528060200260200182016040528015614b5857816020015b6060815260200190600190039081614b435790505b5060009080519060200190614b6e929190615d5c565b506040805190810160405280600881526020017f4170706c654a616d0000000000000000000000000000000000000000000000008152506000600160008054905003815481101515614bbc57fe5b906000526020600020019080519060200190614bd9929190615cb0565b5060008054809190600101614bee9190615dbc565b506040805190810160405280600481526020017f62656566000000000000000000000000000000000000000000000000000000008152506000600160008054905003815481101515614c3c57fe5b906000526020600020019080519060200190614c59929190615cb0565b5060008054809190600101614c6e9190615dbc565b506040805190810160405280600481526020017f706f726b000000000000000000000000000000000000000000000000000000008152506000600160008054905003815481101515614cbc57fe5b906000526020600020019080519060200190614cd9929190615cb0565b5060008054809190600101614cee9190615dbc565b506064600181905550565b6060600660008773ffffffffffffffffffffffffffffffffffffffff1673ffffffffffffffffffffffffffffffffffffffff16815260200190815260200160002060010160009054906101000a900473ffffffffffffffffffffffffffffffffffffffff1673ffffffffffffffffffffffffffffffffffffffff16600660008973ffffffffffffffffffffffffffffffffffffffff1673ffffffffffffffffffffffffffffffffffffffff16815260200190815260200160002060010160009054906101000a900473ffffffffffffffffffffffffffffffffffffffff1673ffffffffffffffffffffffffffffffffffffffff161415614e30576040805190810160405280601e81526020017f796f752063616e74207472616e73706f727420746f20796f757273656c66000081525090506156f7565b6000831415614e76576040805190810160405280601a81526020017f796f752063616e74207472616e73706f7274206e6f7468696e6700000000000081525090506156f7565b600660008773ffffffffffffffffffffffffffffffffffffffff1673ffffffffffffffffffffffffffffffffffffffff16815260200190815260200160002060000154600660008973ffffffffffffffffffffffffffffffffffffffff1673ffffffffffffffffffffffffffffffffffffffff168152602001908152602001600020600001541115156156be576000600660008973ffffffffffffffffffffffffffffffffffffffff1673ffffffffffffffffffffffffffffffffffffffff1681526020019081526020016000206004016000878152602001908152602001600020600001856040518082805190602001908083835b602083101515614f915780518252602082019150602081019050602083039250614f6c565b6001836020036101000a0380198251168184511680821785525050505050509050019150509081526020016040518091039020541415156156815782600660008973ffffffffffffffffffffffffffffffffffffffff1673ffffffffffffffffffffffffffffffffffffffff1681526020019081526020016000206004016000878152602001908152602001600020600001856040518082805190602001908083835b6020831015156150595780518252602082019150602081019050602083039250615034565b6001836020036101000a03801982511681845116808217855250505050505090500191505090815260200160405180910390205411156156445782600660008973ffffffffffffffffffffffffffffffffffffffff1673ffffffffffffffffffffffffffffffffffffffff1681526020019081526020016000206004016000878152602001908152602001600020600001856040518082805190602001908083835b60208310151561512057805182526020820191506020810190506020830392506150fb565b6001836020036101000a0380198251168184511680821785525050505050509050019150509081526020016040518091039020600082825403925050819055506060615256600660008a73ffffffffffffffffffffffffffffffffffffffff1673ffffffffffffffffffffffffffffffffffffffff16815260200190815260200160002060050160008581526020019081526020016000208054600181600116156101000203166002900480601f01602080910402602001604051908101604052809291908181526020018280546001816001161561010002031660029004801561524c5780601f106152215761010080835404028352916020019161524c565b820191906000526020600020905b81548152906001019060200180831161522f57829003601f168201915b5050505050615862565b905083600660008973ffffffffffffffffffffffffffffffffffffffff1673ffffffffffffffffffffffffffffffffffffffff1681526020019081526020016000206004016000888152602001908152602001600020600001826040518082805190602001908083835b6020831015156152e557805182526020820191506020810190506020830392506152c0565b6001836020036101000a038019825116818451168082178552505050505050905001915050908152602001604051809103902081905550846003826040518082805190602001908083835b6020831015156153555780518252602082019150602081019050602083039250615330565b6001836020036101000a0380198251168184511680821785525050505050509050019150509081526020016040518091039020908051906020019061539b929190615cb0565b50436005826040518082805190602001908083835b6020831015156153d557805182526020820191506020810190506020830392506153b0565b6001836020036101000a0380198251168184511680821785525050505050509050019150509081526020016040518091039020819055506004856040518082805190602001908083835b602083101515615444578051825260208201915060208101905060208303925061541f565b6001836020036101000a03801982511681845116808217855250505050505090500191505090815260200160405180910390208190806001815401808255809150509060018203906000526020600020016000909192909190915090805190602001906154b2929190615cb0565b505042600660008a73ffffffffffffffffffffffffffffffffffffffff1673ffffffffffffffffffffffffffffffffffffffff1681526020019081526020016000206003016000600660008b73ffffffffffffffffffffffffffffffffffffffff1673ffffffffffffffffffffffffffffffffffffffff16815260200190815260200160002060010160009054906101000a900473ffffffffffffffffffffffffffffffffffffffff1673ffffffffffffffffffffffffffffffffffffffff1673ffffffffffffffffffffffffffffffffffffffff168152602001908152602001600020600001866040518082805190602001908083835b6020831015156155cf57805182526020820191506020810190506020830392506155aa565b6001836020036101000a0380198251168184511680821785525050505050509050019150509081526020016040518091039020819055506040805190810160405280601181526020017f7472616e73706f727420737563636573730000000000000000000000000000008152509150506156f7565b6040805190810160405280601081526020017f73686f7274206f66206163636f756e740000000000000000000000000000000081525090506156f7565b6040805190810160405280601781526020017f796f7520646f6e742068617665207468697320676f6f6400000000000000000081525090506156f7565b6040805190810160405280601781526020017f77726f6e6720726f6c6520746f207472616e73706f727400000000000000000081525090505b9695505050505050565b600073cf21cdfc7a05ae46be7cd9fe07da40e1e8c65d02905092915050565b606080826040519080825280601f01601f1916602001820160405280156157565781602001600182028038833980820191505090505b50905060008090505b8381101561580d578585820181518110151561577757fe5b9060200101517f010000000000000000000000000000000000000000000000000000000000000090047f01000000000000000000000000000000000000000000000000000000000000000282828151811015156157d057fe5b9060200101907effffffffffffffffffffffffffffffffffffffffffffffffffffffffffffff1916908160001a905350808060010191505061575f565b50809150509392505050565b60016040519080825280602002602001820160405280156158495781602001602082028038833980820191505090505b506002908051906020019061585f929190615de8565b50565b606060016000815480929190600101919050555061588a82615885600154615b57565b615984565b9050919050565b6000816040516020018082805190602001908083835b6020831015156158cc57805182526020820191506020810190506020830392506158a7565b6001836020036101000a03801982511681845116808217855250505050505090500191505060405160208183030381529060405280519060200120836040516020018082805190602001908083835b602083101515615940578051825260208201915060208101905060208303925061591b565b6001836020036101000a0380198251168184511680821785525050505050509050019150506040516020818303038152906040528051906020012014905092915050565b6060808390506060839050606081518351016040519080825280601f01601f1916602001820160405280156159c85781602001600182028038833980820191505090505b5090506060819050600080905060008090505b8551811015615a8e5785818151811015156159f257fe5b9060200101517f010000000000000000000000000000000000000000000000000000000000000090047f0100000000000000000000000000000000000000000000000000000000000000028383806001019450815181101515615a5157fe5b9060200101907effffffffffffffffffffffffffffffffffffffffffffffffffffffffffffff1916908160001a90535080806001019150506159db565b5060008090505b8451811015615b48578481815181101515615aac57fe5b9060200101517f010000000000000000000000000000000000000000000000000000000000000090047f0100000000000000000000000000000000000000000000000000000000000000028383806001019450815181101515615b0b57fe5b9060200101907effffffffffffffffffffffffffffffffffffffffffffffffffffffffffffff1916908160001a9053508080600101915050615a95565b50829550505050505092915050565b60606000821415615b9f576040805190810160405280600181526020017f30000000000000000000000000000000000000000000000000000000000000008152509050615cab565b600082905060005b600082141515615bcd578080600101915050600a82811515615bc557fe5b049150615ba7565b6060816040519080825280601f01601f191660200182016040528015615c025781602001600182028038833980820191505090505b50905060006001830390505b600086141515615ca357600a86811515615c2457fe5b066030017f010000000000000000000000000000000000000000000000000000000000000002828280600190039350815181101515615c5f57fe5b9060200101907effffffffffffffffffffffffffffffffffffffffffffffffffffffffffffff1916908160001a905350600a86811515615c9b57fe5b049550615c0e565b819450505050505b919050565b828054600181600116156101000203166002900490600052602060002090601f016020900481019282601f10615cf157805160ff1916838001178555615d1f565b82800160010185558215615d1f579182015b82811115615d1e578251825591602001919060010190615d03565b5b509050615d2c9190615e72565b5090565b815481835581811115615d5757818360005260206000209182019101615d569190615e72565b5b505050565b828054828255906000526020600020908101928215615dab579160200282015b82811115615daa578251829080519060200190615d9a929190615e97565b5091602001919060010190615d7c565b5b509050615db89190615f17565b5090565b815481835581811115615de357818360005260206000209182019101615de29190615f17565b5b505050565b828054828255906000526020600020908101928215615e61579160200282015b82811115615e605782518260006101000a81548173ffffffffffffffffffffffffffffffffffffffff021916908373ffffffffffffffffffffffffffffffffffffffff16021790555091602001919060010190615e08565b5b509050615e6e9190615f43565b5090565b615e9491905b80821115615e90576000816000905550600101615e78565b5090565b90565b828054600181600116156101000203166002900490600052602060002090601f016020900481019282601f10615ed857805160ff1916838001178555615f06565b82800160010185558215615f06579182015b82811115615f05578251825591602001919060010190615eea565b5b509050615f139190615e72565b5090565b615f4091905b80821115615f3c5760008181615f339190615f86565b50600101615f1d565b5090565b90565b615f8391905b80821115615f7f57600081816101000a81549073ffffffffffffffffffffffffffffffffffffffff021916905550600101615f49565b5090565b90565b50805460018160011615610100020316600290046000825580601f10615fac5750615fcb565b601f016020900490600052602060002090810190615fca9190615e72565b5b5056fea165627a7a7230582008fa8e1a7afd0a27631fcbfb9fd925c509423d46e6605e9b2714b9a5aa4900640029",
  "source": "pragma solidity ^0.5;\r\n\r\ncontract Trace_Source {\r\n\tstring[] Goods;\t\t\t\t\t        \t//id\r\n    uint goodcount;\r\n    function initGoods() public {\r\n        Goods = new string[](1);\r\n        Goods[Goods.length - 1] = \"AppleJam\";\r\n        Goods.length++;\r\n        Goods[Goods.length - 1] = \"beef\";\r\n        Goods.length++;\r\n        Goods[Goods.length - 1] = \"pork\";\r\n        Goods.length++;\r\n        goodcount = 100;\r\n    }\r\n\r\n    function good() public view returns(string memory){\r\n        string memory temp = \"\";\r\n        for(uint i = 0; i < Goods.length; i++){\r\n            temp = strConcat(temp, Goods[i]);\r\n            temp = strConcat(temp, \" \");\r\n            temp = strConcat(temp, uint2str(i));\r\n            temp = strConcat(temp, \" \");\r\n        }\r\n        return temp;\r\n    }\r\n\r\n    address[] addr;\t\t\t\t\t\t\t\t\t\t// \r\n    function initaddr() public{\r\n        addr = new address[](1);\r\n    }\r\n    \r\n    function addrindex() public view returns(uint){\r\n        return addr.length;\r\n    }\r\n\r\n    function addrvalue(uint id) public view returns(address ){\r\n        return addr[id];\r\n    }\r\n\r\n    mapping(string => string) GoodFind;                 // => \r\n    mapping(string => string[]) FindGood;               // => \r\n    mapping(string => uint) BlockNumber;                //GoodFind  BlockNumber  \r\n\r\n    function goodcheck(string memory _string)public view returns(string memory) {\r\n        return GoodFind[_string];\r\n    }\r\n\r\n    function checkgood(string memory _string, uint _id)public view returns(string memory) {\r\n        return FindGood[_string][_id];\r\n    }\r\n\r\n\tstruct Good{\r\n    \t//uint id;\t\t\t\t\t\t\t\t\t\t//\r\n    \tmapping(string => uint) GoodAmount;\t\t\t\t//\r\n    }\r\n\r\n    struct Trans{\r\n    \tmapping(string => uint) tran;\t\t\t\t\t//name => time\r\n    }\r\n\r\n    struct Node{\r\n\t\tuint role;\t\t\t\t\t\t\t\t\t\t//     \r\n\t\taddress location;\t\t\t\t\t\t\t\t//Node\r\n        string place;         \t\t\t\t\t\t\t//\r\n        mapping(address => Trans) child;    \t\t\t//  ( => )\r\n        mapping(uint => Good) good;\t\t\t\t\t\t//  { => } \r\n        mapping(uint => string) goodkind;               //node\r\n        mapping(string => uint) producted;              //node  => \r\n\r\n    }\r\n\r\n    mapping(address => Node) Nodes;                     //\r\n\r\n    function initmarket(address _address, string memory _place) public returns (uint){\r\n        for(uint i = 0; i < addr.length; i++){\r\n            if(addr[i] == _address){\r\n                return 0;\r\n            }\r\n        }\r\n        Nodes[_address].role = 5;\r\n        Nodes[_address].location = _address;\r\n        Nodes[_address].place = _place;\r\n        addr[addr.length - 1] = _address;\r\n        addr.length++;\r\n        return 1;\r\n    }\r\n\r\n    function CheckSign(bytes memory sign, bytes32 hash) public view returns(address) {\r\n        return 0xcF21cDFc7a05Ae46Be7cd9fe07dA40E1e8c65D02;\r\n    }\r\n\r\n    function showcount() public view returns (uint){\r\n        return goodcount;\r\n    }\r\n\r\n\r\n\r\n    function showtran(address _address, address _to, string memory _goodname) public view returns (uint){\r\n        return Nodes[_address].child[_to].tran[_goodname];\r\n    }\r\n\r\n    function showamount(address _address, uint _goodindex, string memory _goodname) public view returns (uint){\r\n        return Nodes[_address].good[_goodindex].GoodAmount[_goodname];\r\n    }\r\n\r\n    function initgoodkind1(address _address) public{\r\n        Nodes[_address].goodkind[0] = \"seed\";\r\n    }\r\n\r\n    function initgoodkind2(address _address)public{\r\n        Nodes[_address].goodkind[0] = \"apple\";\r\n    }\r\n\r\n    function initgoodkind3(address _address)public{\r\n        Nodes[_address].goodkind[0] = \"applemash\";\r\n    }\r\n\r\n    function initgoodkind4(address _address)public{\r\n        Nodes[_address].goodkind[0] = \"applejam\";\r\n    }\r\n\r\n    function NewNode(uint _role, address _address, string memory _place) public returns (uint){\r\n        if(_role < 0){\r\n            return 0;\r\n        }\r\n        for(uint i = 0; i < addr.length; i++){\r\n            if(addr[i] == _address){\r\n                return 0;\r\n            }\r\n        }\r\n        Nodes[_address].role = _role;\r\n        Nodes[_address].location = _address;\r\n        Nodes[_address].place = _place;\r\n    \taddr[addr.length - 1] = _address;\r\n        addr.length++;\r\n        return 1;\r\n    }\r\n\r\n    function name(string memory _GoodIndex) internal returns(string memory){\r\n        goodcount++;\r\n        return strConcat(_GoodIndex, uint2str(goodcount));\r\n    }\r\n\r\n    function transport(address _from, address _to, uint _GoodIndex, string memory _GoodName, uint _account ,uint _GoodKind) public returns (string memory){\r\n    \tif(Nodes[_from].location == Nodes[_to].location)\r\n    \t\treturn \"you cant transport to yourself\";\r\n    \tif(_account == 0)\r\n    \t\treturn \"you cant transport nothing\";\r\n    \tif(Nodes[_from].role <= Nodes[_to].role){\r\n    \t\tif(Nodes[_from].good[_GoodIndex].GoodAmount[_GoodName] != 0){\r\n    \t\t\tif(Nodes[_from].good[_GoodIndex].GoodAmount[_GoodName] > _account){\r\n    \t\t\t\tNodes[_from].good[_GoodIndex].GoodAmount[_GoodName] -= _account;\r\n                    string memory _name = name(Nodes[_from].goodkind[_GoodKind]);\r\n   \t\t\t\t\tNodes[_to].good[_GoodIndex].GoodAmount[_name] = _account;\r\n                    GoodFind[_name] = _GoodName;\r\n                    BlockNumber[_name] = block.number;\r\n                    FindGood[_GoodName].push(_name);\r\n   \t\t\t\t  \tNodes[_from].child[Nodes[_to].location].tran[_GoodName] = now;\r\n   \t\t\t\t\treturn \"transport success\";\r\n    \t\t\t}\r\n    \t\t\telse \r\n    \t\t\t\treturn \"short of account\";\r\n    \t\t}\r\n    \t\telse \r\n    \t\t\treturn \"you dont have this good\";\r\n    \t}\r\n    \telse \r\n    \t\treturn \"wrong role to transport\";\r\n    }\r\n\r\n/*\r\n    function AddAmount(address _node, uint _GoodIndex, uint _account) public returns (string memory){\r\n    \tstring memory name = name(Nodes[_node].goodkind[_GoodIndex]);\r\n    \tif(Nodes[_node].good[_GoodIndex].GoodAmount[name] > 0){\r\n    \t\tNodes[_node].good[_GoodIndex].GoodAmount[name] += _account;\r\n    \t}\r\n    \telse \r\n    \t\tNodes[_node].good[_GoodIndex].GoodAmount[name] = _account;\r\n        return name;\r\n    }\r\n*/\r\n\r\n    function product(address _address, uint _GoodIndex, string memory _GoodName, uint _product, uint _good, uint _GoodId) public returns (uint){\r\n        // \r\n        if(Nodes[_address].good[_GoodIndex].GoodAmount[_GoodName] < _product){\r\n            return 0;\r\n        }\r\n        Nodes[_address].good[_GoodIndex].GoodAmount[_GoodName] -= _product;\r\n        string memory name = name(Nodes[_address].goodkind[_GoodId]);\r\n        Nodes[_address].good[_GoodIndex].GoodAmount[name] += _good;\r\n        GoodFind[name] = _GoodName;\r\n        BlockNumber[name] = block.number;\r\n        FindGood[_GoodName].push(name);\r\n        Nodes[_address].producted[name] = now;\r\n        return 1;\r\n    }\r\n\r\n    function compareStrings (string memory a, string memory b) internal view returns (bool) {\r\n         return (keccak256(abi.encodePacked((a))) == keccak256(abi.encodePacked((b))));\r\n    }\r\n\r\n    function toString(address x) internal view returns (string memory) {\r\n        bytes memory b = new bytes(20);\r\n        for (uint i = 0; i < 20; i++)\r\n            b[i] = byte(uint8(uint(x) / (2**(8*(19 - i)))));\r\n        return string(b);\r\n    }\r\n\r\n    function trace_source(string memory _GoodName, uint _GoodId) public view returns (string memory){\r\n        string[] memory path = new string[](10);\r\n        address[] memory result = new address[](10);\r\n        string memory check = _GoodName;\r\n        path[0] = _GoodName;\r\n        uint count = 1;\r\n        while(!compareStrings(goodcheck(check), \"\")){\r\n            check = goodcheck(check);\r\n            path[count] = check;\r\n            count++;\r\n        }\r\n        uint index = 0;\r\n        while(!compareStrings(path[index], \"\")){\r\n            index++;\r\n        }\r\n        uint c = 0;\r\n        index --;\r\n        for(uint j = 0; j <= index; j++){\r\n            for(uint i = 0; i < addr.length; i++){\r\n                //_GoodName\r\n                 if(Nodes[addr[i]].good[_GoodId].GoodAmount[path[index - j]] > 0){\r\n                    result[c] = addr[i];\r\n                    c++;\r\n                }\r\n            }\r\n        }\r\n        count = 0;\r\n        string memory temp = \"\";\r\n        while(result[count] != address(0)){\r\n            string memory status;\r\n            if(result[count] == result[count + 1]){\r\n                //\r\n                status = strConcat(\"  \", uint2str(Nodes[result[count]].producted[path[index - count - 1]]));\r\n                temp = strConcat(temp, Nodes[result[count]].place);\r\n                temp = strConcat(temp, status);\r\n                temp = strConcat(temp, \" \");\r\n                temp = strConcat(temp, path[index - count]);\r\n                temp = strConcat(temp, \" \");\r\n                temp = strConcat(temp, uint2str(BlockNumber[path[index - count]]));\r\n                temp = strConcat(temp, \" \");\r\n                if(result[count + 2] == address(0)){\r\n                    temp = strConcat(temp, Nodes[result[count + 1]].place);\r\n                    return temp;\r\n                }\r\n                status = strConcat(\"  \", uint2str(Nodes[result[count]].child[result[count + 2]].tran[path[index - count - 1]]));\r\n                temp = strConcat(temp, Nodes[result[count]].place);\r\n                temp = strConcat(temp, status);\r\n                temp = strConcat(temp, \" \");\r\n                temp = strConcat(temp, path[index - count - 1]);\r\n                temp = strConcat(temp, \" \");\r\n                temp = strConcat(temp, uint2str(BlockNumber[path[index - count]] + 1));\r\n                temp = strConcat(temp, \" \");\r\n                count += 2;\r\n            }\r\n            else{\r\n                //\r\n                if(result[count + 1] == address(0)){\r\n                    temp = strConcat(temp, Nodes[result[count]].place);\r\n                    temp = strConcat(temp, \" \");\r\n                    temp = strConcat(temp, path[index - count]);\r\n                    temp = strConcat(temp, \" \");\r\n                    temp = strConcat(temp, uint2str(BlockNumber[path[index - count]]));\r\n                    temp = strConcat(temp, \" \");\r\n                    return temp;\r\n                }\r\n                if(Nodes[result[count]].producted[path[index - count]] > 0){\r\n                    status = strConcat(\"  \", uint2str(Nodes[result[count]].producted[path[index - count]]));\r\n                }\r\n                else{\r\n                    status = strConcat(\"  \", uint2str(Nodes[result[count]].child[result[count + 1]].tran[path[index - count]]));\r\n                }\r\n                temp = strConcat(temp, Nodes[result[count]].place);\r\n                temp = strConcat(temp, status);\r\n                temp = strConcat(temp, \" \");\r\n                temp = strConcat(temp, path[index - count]);\r\n                temp = strConcat(temp, \" \");\r\n                temp = strConcat(temp, uint2str(BlockNumber[path[index - count]]));\r\n                temp = strConcat(temp, \" \");\r\n                count++;\r\n            }\r\n        }\r\n        return temp;\r\n    }\r\n\r\n    function strConcat(string memory _a, string memory _b) internal pure returns (string memory){\r\n        bytes memory _ba = bytes(_a);\r\n        bytes memory _bb = bytes(_b);\r\n        string memory ret = new string(_ba.length + _bb.length);\r\n        bytes memory bret = bytes(ret);\r\n        uint k = 0;\r\n        for (uint i = 0; i < _ba.length; i++)\r\n            bret[k++] = _ba[i];\r\n        for (uint i = 0; i < _bb.length; i++) \r\n            bret[k++] = _bb[i];\r\n        return string(ret);\r\n   }  \r\n\r\n    function uint2str(uint _i) internal pure returns (string memory _uintAsString) {\r\n        if (_i == 0) {\r\n            return \"0\";\r\n        }\r\n        uint j = _i;\r\n        uint len;\r\n        while (j != 0) {\r\n            len++;\r\n            j /= 10;\r\n        }\r\n        bytes memory bstr = new bytes(len);\r\n        uint k = len - 1;\r\n        while (_i != 0) {\r\n            bstr[k--] = byte(uint8(48 + _i % 10));\r\n            _i /= 10;\r\n        }\r\n        return string(bstr);\r\n    }\r\n\r\n    function source(string memory _GoodName) public view returns (string memory){\r\n        string[] memory s = new string[](10);\r\n        s[0] = _GoodName;\r\n        uint i = 0;\r\n        uint count = 0;\r\n        uint index = 1;\r\n        while(FindGood[s[count]].length != 0){\r\n            i = 0;\r\n            for(uint j = 0; j < FindGood[s[count]].length; j++){\r\n                s[index] = FindGood[s[count]][i];\r\n                index++;\r\n                i++;\r\n            }\r\n            count++;\r\n        }\r\n        string memory result = \"\";\r\n        i = 0;\r\n        while(!compareStrings(s[i], \"\")){\r\n            result = strConcat(result, s[i]);\r\n            result = strConcat(result, \" \");\r\n            i++;\r\n        }\r\n        return result;\r\n    }\r\n\r\n    function splitSignature(bytes memory sig) public pure returns(uint8 v, bytes32 r, bytes32 s){\r\n        require(sig.length == 65);\r\n        assembly {\r\n            // first 32 bytes, after the length prefix.\r\n            r := mload(add(sig, 32))\r\n            // second 32 bytes.\r\n            s := mload(add(sig, 64))\r\n            // final byte (first byte of the next 32 bytes).\r\n            v := byte(0, mload(add(sig, 96)))\r\n        }\r\n\r\n        return (v+27, r, s);\r\n    }\r\n\r\n    function recoverSigner(bytes32 message, bytes memory sig) public pure returns (address){\r\n        (uint8 v, bytes32 r, bytes32 s) = splitSignature(sig);\r\n        return ecrecover(message, v, r, s);\r\n    }\r\n\r\n\r\n    function tiaoshi(address _address1, address _address2, address _address3, address _address4, address _address5) public{\r\n        initGoods();\r\n        initaddr();\r\n        NewNode(1, _address1, \"-\");\r\n        initgoodkind1(_address1);\r\n        product(_address1, 0, \"\", 0, 100, 0);\r\n   //   AddAmount(_address1, 0, 100);\r\n        NewNode(2, _address2, \"-\");\r\n        initgoodkind2(_address2);\r\n        NewNode(3, _address3, \"-\");\r\n        initgoodkind3(_address3);\r\n        NewNode(4, _address4, \"-\");\r\n        initgoodkind4(_address4);\r\n        NewNode(5, _address5, \"-()\");\r\n        initgoodkind4(_address5);\r\n\r\n        transport(_address1, _address2, 0, \"seed101\", 80, 0);\r\n        product(_address2, 0, \"seed102\", 60, 30, 0);\r\n        transport(_address2, _address3, 0, \"apple103\", 20, 0);\r\n        product(_address3, 0, \"apple104\", 10, 30, 0);\r\n        transport(_address3, _address4, 0, \"applemash105\", 20, 0);\r\n        product(_address4, 0, \"applemash106\", 15, 30, 0);\r\n        transport(_address4, _address5, 0, \"applejam107\", 29, 0);\r\n    }\r\n\r\n\r\n    function decode() public returns (address){\r\n        bytes memory signedString =hex\"f4128988cbe7df8315440adde412a8955f7f5ff9a5468a791433727f82717a6753bd71882079522207060b681fbd3f5623ee7ed66e33fc8e581f442acbcf6ab800\";\r\n        bytes32  r = bytesToBytes32(slice(signedString, 0, 32));\r\n        bytes32  s = bytesToBytes32(slice(signedString, 32, 32));\r\n        byte  v = slice(signedString, 64, 1)[0];\r\n        return ecrecoverDecode(r, s, v);\r\n  }\r\n\r\n    function slice(bytes memory data, uint start, uint len) public returns (bytes memory){\r\n        bytes memory b = new bytes(len);\r\n        for(uint i = 0; i < len; i++){\r\n            b[i] = data[i + start];\r\n        }\r\n    return b;\r\n  }\r\n\r\n    function ecrecoverDecode(bytes32 r, bytes32 s, byte v1) public returns (address addr){\r\n        uint8 v = uint8(v1) + 27;\r\n        addr = ecrecover(hex\"4e03657aea45a94fc7d47ba826c8d667c0d1e6e33a64a036ec44f58fa12d6c45\", v, r, s);\r\n  }\r\n    \r\n    function bytesToBytes32(bytes memory source) public returns (bytes32 result) {\r\n        assembly {\r\n        result := mload(add(source, 32))\r\n    }\r\n  }\r\n}",
  "sourcePath": "D:/LYG////contract/contracts/trace_source.sol",
  "compiler": {
    "name": "solc",
    "version": "0.5.0+commit.1d4f565a.Emscripten.clang"
  },
  "schemaVersion": "3.0.6",
  "updatedAt": "2019-05-22T05:50:08.036Z",
  "devdoc": {
    "methods": {}
  },
  "userdoc": {
    "methods": {}
  }
}