{
  "contractName": "Trace_Source",
  "abi": [
    {
      "constant": false,
      "inputs": [],
      "name": "initGoods",
      "outputs": [],
      "payable": false,
      "stateMutability": "nonpayable",
      "type": "function",
      "signature": "0xcdc1514f"
    },
    {
      "constant": true,
      "inputs": [],
      "name": "good",
      "outputs": [
        {
          "name": "",
          "type": "string"
        }
      ],
      "payable": false,
      "stateMutability": "view",
      "type": "function",
      "signature": "0xaa8fb40b"
    },
    {
      "constant": false,
      "inputs": [],
      "name": "initaddr",
      "outputs": [],
      "payable": false,
      "stateMutability": "nonpayable",
      "type": "function",
      "signature": "0xed64c6c9"
    },
    {
      "constant": true,
      "inputs": [],
      "name": "addrindex",
      "outputs": [
        {
          "name": "",
          "type": "uint256"
        }
      ],
      "payable": false,
      "stateMutability": "view",
      "type": "function",
      "signature": "0xccc679f7"
    },
    {
      "constant": true,
      "inputs": [
        {
          "name": "id",
          "type": "uint256"
        }
      ],
      "name": "addrvalue",
      "outputs": [
        {
          "name": "",
          "type": "address"
        }
      ],
      "payable": false,
      "stateMutability": "view",
      "type": "function",
      "signature": "0x7c383613"
    },
    {
      "constant": true,
      "inputs": [
        {
          "name": "_string",
          "type": "string"
        }
      ],
      "name": "goodcheck",
      "outputs": [
        {
          "name": "",
          "type": "string"
        }
      ],
      "payable": false,
      "stateMutability": "view",
      "type": "function",
      "signature": "0xbc1e22c6"
    },
    {
      "constant": true,
      "inputs": [
        {
          "name": "_string",
          "type": "string"
        },
        {
          "name": "_id",
          "type": "uint256"
        }
      ],
      "name": "checkgood",
      "outputs": [
        {
          "name": "",
          "type": "string"
        }
      ],
      "payable": false,
      "stateMutability": "view",
      "type": "function",
      "signature": "0x829c9feb"
    },
    {
      "constant": false,
      "inputs": [
        {
          "name": "_address",
          "type": "address"
        },
        {
          "name": "_place",
          "type": "string"
        }
      ],
      "name": "initmarket",
      "outputs": [
        {
          "name": "",
          "type": "uint256"
        }
      ],
      "payable": false,
      "stateMutability": "nonpayable",
      "type": "function",
      "signature": "0x45bf9bb0"
    },
    {
      "constant": true,
      "inputs": [
        {
          "name": "_address",
          "type": "address"
        },
        {
          "name": "_to",
          "type": "address"
        },
        {
          "name": "_goodname",
          "type": "string"
        }
      ],
      "name": "showtran",
      "outputs": [
        {
          "name": "",
          "type": "uint256"
        }
      ],
      "payable": false,
      "stateMutability": "view",
      "type": "function",
      "signature": "0x9a01d19b"
    },
    {
      "constant": true,
      "inputs": [
        {
          "name": "_address",
          "type": "address"
        },
        {
          "name": "_goodindex",
          "type": "uint256"
        },
        {
          "name": "_goodname",
          "type": "string"
        }
      ],
      "name": "showamount",
      "outputs": [
        {
          "name": "",
          "type": "uint256"
        }
      ],
      "payable": false,
      "stateMutability": "view",
      "type": "function",
      "signature": "0xc1b410bd"
    },
    {
      "constant": false,
      "inputs": [
        {
          "name": "_address",
          "type": "address"
        }
      ],
      "name": "initgoodkind1",
      "outputs": [],
      "payable": false,
      "stateMutability": "nonpayable",
      "type": "function",
      "signature": "0x18ce5f8a"
    },
    {
      "constant": false,
      "inputs": [
        {
          "name": "_address",
          "type": "address"
        }
      ],
      "name": "initgoodkind2",
      "outputs": [],
      "payable": false,
      "stateMutability": "nonpayable",
      "type": "function",
      "signature": "0x12572f2a"
    },
    {
      "constant": false,
      "inputs": [
        {
          "name": "_address",
          "type": "address"
        }
      ],
      "name": "initgoodkind3",
      "outputs": [],
      "payable": false,
      "stateMutability": "nonpayable",
      "type": "function",
      "signature": "0x91a828df"
    },
    {
      "constant": false,
      "inputs": [
        {
          "name": "_address",
          "type": "address"
        }
      ],
      "name": "initgoodkind4",
      "outputs": [],
      "payable": false,
      "stateMutability": "nonpayable",
      "type": "function",
      "signature": "0x6459bf04"
    },
    {
      "constant": false,
      "inputs": [
        {
          "name": "_role",
          "type": "uint256"
        },
        {
          "name": "_address",
          "type": "address"
        },
        {
          "name": "_place",
          "type": "string"
        }
      ],
      "name": "NewNode",
      "outputs": [
        {
          "name": "",
          "type": "uint256"
        }
      ],
      "payable": false,
      "stateMutability": "nonpayable",
      "type": "function",
      "signature": "0xb869f534"
    },
    {
      "constant": false,
      "inputs": [
        {
          "name": "_from",
          "type": "address"
        },
        {
          "name": "_to",
          "type": "address"
        },
        {
          "name": "_GoodIndex",
          "type": "uint256"
        },
        {
          "name": "_GoodName",
          "type": "string"
        },
        {
          "name": "_account",
          "type": "uint256"
        },
        {
          "name": "_GoodKind",
          "type": "uint256"
        }
      ],
      "name": "transport",
      "outputs": [
        {
          "name": "",
          "type": "string"
        }
      ],
      "payable": false,
      "stateMutability": "nonpayable",
      "type": "function",
      "signature": "0xd137d38a"
    },
    {
      "constant": false,
      "inputs": [
        {
          "name": "_address",
          "type": "address"
        },
        {
          "name": "_GoodIndex",
          "type": "uint256"
        },
        {
          "name": "_GoodName",
          "type": "string"
        },
        {
          "name": "_product",
          "type": "uint256"
        },
        {
          "name": "_good",
          "type": "uint256"
        },
        {
          "name": "_GoodId",
          "type": "uint256"
        }
      ],
      "name": "product",
      "outputs": [
        {
          "name": "",
          "type": "uint256"
        }
      ],
      "payable": false,
      "stateMutability": "nonpayable",
      "type": "function",
      "signature": "0x0e8383dc"
    },
    {
      "constant": true,
      "inputs": [
        {
          "name": "_GoodName",
          "type": "string"
        },
        {
          "name": "_GoodId",
          "type": "uint256"
        }
      ],
      "name": "trace_source",
      "outputs": [
        {
          "name": "",
          "type": "string"
        }
      ],
      "payable": false,
      "stateMutability": "view",
      "type": "function",
      "signature": "0x672ac300"
    },
    {
      "constant": true,
      "inputs": [
        {
          "name": "_GoodName",
          "type": "string"
        }
      ],
      "name": "source",
      "outputs": [
        {
          "name": "",
          "type": "string"
        }
      ],
      "payable": false,
      "stateMutability": "view",
      "type": "function",
      "signature": "0x3f61716c"
    },
    {
      "constant": true,
      "inputs": [
        {
          "name": "sig",
          "type": "bytes"
        }
      ],
      "name": "splitSignature",
      "outputs": [
        {
          "name": "v",
          "type": "uint8"
        },
        {
          "name": "r",
          "type": "bytes32"
        },
        {
          "name": "s",
          "type": "bytes32"
        }
      ],
      "payable": false,
      "stateMutability": "pure",
      "type": "function",
      "signature": "0xa7bb5803"
    },
    {
      "constant": true,
      "inputs": [
        {
          "name": "message",
          "type": "bytes32"
        },
        {
          "name": "sig",
          "type": "bytes"
        }
      ],
      "name": "recoverSigner",
      "outputs": [
        {
          "name": "",
          "type": "address"
        }
      ],
      "payable": false,
      "stateMutability": "pure",
      "type": "function",
      "signature": "0x97aba7f9"
    },
    {
      "constant": false,
      "inputs": [
        {
          "name": "_address1",
          "type": "address"
        },
        {
          "name": "_address2",
          "type": "address"
        },
        {
          "name": "_address3",
          "type": "address"
        },
        {
          "name": "_address4",
          "type": "address"
        },
        {
          "name": "_address5",
          "type": "address"
        }
      ],
      "name": "tiaoshi",
      "outputs": [],
      "payable": false,
      "stateMutability": "nonpayable",
      "type": "function",
      "signature": "0x758113ef"
    },
    {
      "constant": false,
      "inputs": [],
      "name": "decode",
      "outputs": [
        {
          "name": "",
          "type": "address"
        }
      ],
      "payable": false,
      "stateMutability": "nonpayable",
      "type": "function",
      "signature": "0xc0f8940c"
    },
    {
      "constant": false,
      "inputs": [
        {
          "name": "data",
          "type": "bytes"
        },
        {
          "name": "start",
          "type": "uint256"
        },
        {
          "name": "len",
          "type": "uint256"
        }
      ],
      "name": "slice",
      "outputs": [
        {
          "name": "",
          "type": "bytes"
        }
      ],
      "payable": false,
      "stateMutability": "nonpayable",
      "type": "function",
      "signature": "0xe0041396"
    },
    {
      "constant": false,
      "inputs": [
        {
          "name": "r",
          "type": "bytes32"
        },
        {
          "name": "s",
          "type": "bytes32"
        },
        {
          "name": "v1",
          "type": "bytes1"
        }
      ],
      "name": "ecrecoverDecode",
      "outputs": [
        {
          "name": "addr",
          "type": "address"
        }
      ],
      "payable": false,
      "stateMutability": "nonpayable",
      "type": "function",
      "signature": "0x9f9d5793"
    },
    {
      "constant": false,
      "inputs": [
        {
          "name": "source",
          "type": "bytes"
        }
      ],
      "name": "bytesToBytes32",
      "outputs": [
        {
          "name": "result",
          "type": "bytes32"
        }
      ],
      "payable": false,
      "stateMutability": "nonpayable",
      "type": "function",
      "signature": "0xbfe370d9"
    }
  ],
  "bytecode": "0x608060405234801561001057600080fd5b50615e7e80620000216000396000f3fe608060405260043610610154576000357c0100000000000000000000000000000000000000000000000000000000900463ffffffff1680630e8383dc1461015957806312572f2a1461027d57806318ce5f8a146102ce5780633f61716c1461031f57806345bf9bb0146104605780636459bf041461055c578063672ac300146105ad578063758113ef146106f85780637c383613146107c9578063829c9feb1461084457806391a828df1461098f57806397aba7f9146109e05780639a01d19b14610af25780639f9d579314610c0e578063a7bb580314610cbf578063aa8fb40b14610daf578063b869f53414610e3f578063bc1e22c614610f45578063bfe370d914611086578063c0f8940c14611162578063c1b410bd146111b9578063ccc679f7146112bf578063cdc1514f146112ea578063d137d38a14611301578063e0041396146114a0578063ed64c6c9146115f5575b600080fd5b34801561016557600080fd5b50610267600480360360c081101561017c57600080fd5b81019080803573ffffffffffffffffffffffffffffffffffffffff16906020019092919080359060200190929190803590602001906401000000008111156101c357600080fd5b8201836020820111156101d557600080fd5b803590602001918460018302840111640100000000831117156101f757600080fd5b91908080601f016020809104026020016040519081016040528093929190818152602001838380828437600081840152601f19601f82011690508083019250505050505050919291929080359060200190929190803590602001909291908035906020019092919050505061160c565b6040518082815260200191505060405180910390f35b34801561028957600080fd5b506102cc600480360360208110156102a057600080fd5b81019080803573ffffffffffffffffffffffffffffffffffffffff169060200190929190505050611bc8565b005b3480156102da57600080fd5b5061031d600480360360208110156102f157600080fd5b81019080803573ffffffffffffffffffffffffffffffffffffffff169060200190929190505050611c68565b005b34801561032b57600080fd5b506103e56004803603602081101561034257600080fd5b810190808035906020019064010000000081111561035f57600080fd5b82018360208201111561037157600080fd5b8035906020019184600183028401116401000000008311171561039357600080fd5b91908080601f016020809104026020016040519081016040528093929190818152602001838380828437600081840152601f19601f820116905080830192505050505050509192919290505050611d08565b6040518080602001828103825283818151815260200191508051906020019080838360005b8381101561042557808201518184015260208101905061040a565b50505050905090810190601f1680156104525780820380516001836020036101000a031916815260200191505b509250505060405180910390f35b34801561046c57600080fd5b506105466004803603604081101561048357600080fd5b81019080803573ffffffffffffffffffffffffffffffffffffffff169060200190929190803590602001906401000000008111156104c057600080fd5b8201836020820111156104d257600080fd5b803590602001918460018302840111640100000000831117156104f457600080fd5b91908080601f016020809104026020016040519081016040528093929190818152602001838380828437600081840152601f19601f8201169050808301925050505050505091929192905050506120de565b6040518082815260200191505060405180910390f35b34801561056857600080fd5b506105ab6004803603602081101561057f57600080fd5b81019080803573ffffffffffffffffffffffffffffffffffffffff169060200190929190505050612318565b005b3480156105b957600080fd5b5061067d600480360360408110156105d057600080fd5b81019080803590602001906401000000008111156105ed57600080fd5b8201836020820111156105ff57600080fd5b8035906020019184600183028401116401000000008311171561062157600080fd5b91908080601f016020809104026020016040519081016040528093929190818152602001838380828437600081840152601f19601f820116905080830192505050505050509192919290803590602001909291905050506123b8565b6040518080602001828103825283818151815260200191508051906020019080838360005b838110156106bd5780820151818401526020810190506106a2565b50505050905090810190601f1680156106ea5780820380516001836020036101000a031916815260200191505b509250505060405180910390f35b34801561070457600080fd5b506107c7600480360360a081101561071b57600080fd5b81019080803573ffffffffffffffffffffffffffffffffffffffff169060200190929190803573ffffffffffffffffffffffffffffffffffffffff169060200190929190803573ffffffffffffffffffffffffffffffffffffffff169060200190929190803573ffffffffffffffffffffffffffffffffffffffff169060200190929190803573ffffffffffffffffffffffffffffffffffffffff1690602001909291905050506139f3565b005b3480156107d557600080fd5b50610802600480360360208110156107ec57600080fd5b8101908080359060200190929190505050613e5b565b604051808273ffffffffffffffffffffffffffffffffffffffff1673ffffffffffffffffffffffffffffffffffffffff16815260200191505060405180910390f35b34801561085057600080fd5b506109146004803603604081101561086757600080fd5b810190808035906020019064010000000081111561088457600080fd5b82018360208201111561089657600080fd5b803590602001918460018302840111640100000000831117156108b857600080fd5b91908080601f016020809104026020016040519081016040528093929190818152602001838380828437600081840152601f19601f82011690508083019250505050505050919291929080359060200190929190505050613e9e565b6040518080602001828103825283818151815260200191508051906020019080838360005b83811015610954578082015181840152602081019050610939565b50505050905090810190601f1680156109815780820380516001836020036101000a031916815260200191505b509250505060405180910390f35b34801561099b57600080fd5b506109de600480360360208110156109b257600080fd5b81019080803573ffffffffffffffffffffffffffffffffffffffff169060200190929190505050613fc3565b005b3480156109ec57600080fd5b50610ab060048036036040811015610a0357600080fd5b810190808035906020019092919080359060200190640100000000811115610a2a57600080fd5b820183602082011115610a3c57600080fd5b80359060200191846001830284011164010000000083111715610a5e57600080fd5b91908080601f016020809104026020016040519081016040528093929190818152602001838380828437600081840152601f19601f820116905080830192505050505050509192919290505050614063565b604051808273ffffffffffffffffffffffffffffffffffffffff1673ffffffffffffffffffffffffffffffffffffffff16815260200191505060405180910390f35b348015610afe57600080fd5b50610bf860048036036060811015610b1557600080fd5b81019080803573ffffffffffffffffffffffffffffffffffffffff169060200190929190803573ffffffffffffffffffffffffffffffffffffffff16906020019092919080359060200190640100000000811115610b7257600080fd5b820183602082011115610b8457600080fd5b80359060200191846001830284011164010000000083111715610ba657600080fd5b91908080601f016020809104026020016040519081016040528093929190818152602001838380828437600081840152601f19601f8201169050808301925050505050505091929192905050506140ea565b6040518082815260200191505060405180910390f35b348015610c1a57600080fd5b50610c7d60048036036060811015610c3157600080fd5b81019080803590602001909291908035906020019092919080357effffffffffffffffffffffffffffffffffffffffffffffffffffffffffffff191690602001909291905050506141e1565b604051808273ffffffffffffffffffffffffffffffffffffffff1673ffffffffffffffffffffffffffffffffffffffff16815260200191505060405180910390f35b348015610ccb57600080fd5b50610d8560048036036020811015610ce257600080fd5b8101908080359060200190640100000000811115610cff57600080fd5b820183602082011115610d1157600080fd5b80359060200191846001830284011164010000000083111715610d3357600080fd5b91908080601f016020809104026020016040519081016040528093929190818152602001838380828437600081840152601f19601f82011690508083019250505050505050919291929050505061429e565b604051808460ff1660ff168152602001838152602001828152602001935050505060405180910390f35b348015610dbb57600080fd5b50610dc46142de565b6040518080602001828103825283818151815260200191508051906020019080838360005b83811015610e04578082015181840152602081019050610de9565b50505050905090810190601f168015610e315780820380516001836020036101000a031916815260200191505b509250505060405180910390f35b348015610e4b57600080fd5b50610f2f60048036036060811015610e6257600080fd5b8101908080359060200190929190803573ffffffffffffffffffffffffffffffffffffffff16906020019092919080359060200190640100000000811115610ea957600080fd5b820183602082011115610ebb57600080fd5b80359060200191846001830284011164010000000083111715610edd57600080fd5b91908080601f016020809104026020016040519081016040528093929190818152602001838380828437600081840152601f19601f82011690508083019250505050505050919291929050505061446f565b6040518082815260200191505060405180910390f35b348015610f5157600080fd5b5061100b60048036036020811015610f6857600080fd5b8101908080359060200190640100000000811115610f8557600080fd5b820183602082011115610f9757600080fd5b80359060200191846001830284011164010000000083111715610fb957600080fd5b91908080601f016020809104026020016040519081016040528093929190818152602001838380828437600081840152601f19601f8201169050808301925050505050505091929192905050506146ba565b6040518080602001828103825283818151815260200191508051906020019080838360005b8381101561104b578082015181840152602081019050611030565b50505050905090810190601f1680156110785780820380516001836020036101000a031916815260200191505b509250505060405180910390f35b34801561109257600080fd5b5061114c600480360360208110156110a957600080fd5b81019080803590602001906401000000008111156110c657600080fd5b8201836020820111156110d857600080fd5b803590602001918460018302840111640100000000831117156110fa57600080fd5b91908080601f016020809104026020016040519081016040528093929190818152602001838380828437600081840152601f19601f8201169050808301925050505050505091929192905050506147c7565b6040518082815260200191505060405180910390f35b34801561116e57600080fd5b506111776147d5565b604051808273ffffffffffffffffffffffffffffffffffffffff1673ffffffffffffffffffffffffffffffffffffffff16815260200191505060405180910390f35b3480156111c557600080fd5b506112a9600480360360608110156111dc57600080fd5b81019080803573ffffffffffffffffffffffffffffffffffffffff169060200190929190803590602001909291908035906020019064010000000081111561122357600080fd5b82018360208201111561123557600080fd5b8035906020019184600183028401116401000000008311171561125757600080fd5b91908080601f016020809104026020016040519081016040528093929190818152602001838380828437600081840152601f19601f8201169050808301925050505050505091929192905050506148ee565b6040518082815260200191505060405180910390f35b3480156112cb57600080fd5b506112d46149b9565b6040518082815260200191505060405180910390f35b3480156112f657600080fd5b506112ff6149c6565b005b34801561130d57600080fd5b50611425600480360360c081101561132457600080fd5b81019080803573ffffffffffffffffffffffffffffffffffffffff169060200190929190803573ffffffffffffffffffffffffffffffffffffffff169060200190929190803590602001909291908035906020019064010000000081111561138b57600080fd5b82018360208201111561139d57600080fd5b803590602001918460018302840111640100000000831117156113bf57600080fd5b91908080601f016020809104026020016040519081016040528093929190818152602001838380828437600081840152601f19601f8201169050808301925050505050505091929192908035906020019092919080359060200190929190505050614b9c565b6040518080602001828103825283818151815260200191508051906020019080838360005b8381101561146557808201518184015260208101905061144a565b50505050905090810190601f1680156114925780820380516001836020036101000a031916815260200191505b509250505060405180910390f35b3480156114ac57600080fd5b5061157a600480360360608110156114c357600080fd5b81019080803590602001906401000000008111156114e057600080fd5b8201836020820111156114f257600080fd5b8035906020019184600183028401116401000000008311171561151457600080fd5b91908080601f016020809104026020016040519081016040528093929190818152602001838380828437600081840152601f19601f82011690508083019250505050505050919291929080359060200190929190803590602001909291905050506155a4565b6040518080602001828103825283818151815260200191508051906020019080838360005b838110156115ba57808201518184015260208101905061159f565b50505050905090810190601f1680156115e75780820380516001836020036101000a031916815260200191505b509250505060405180910390f35b34801561160157600080fd5b5061160a61569d565b005b600083600660008973ffffffffffffffffffffffffffffffffffffffff1673ffffffffffffffffffffffffffffffffffffffff1681526020019081526020016000206004016000888152602001908152602001600020600001866040518082805190602001908083835b60208310151561169b5780518252602082019150602081019050602083039250611676565b6001836020036101000a03801982511681845116808217855250505050505090500191505090815260200160405180910390205410156116de5760009050611bbe565b83600660008973ffffffffffffffffffffffffffffffffffffffff1673ffffffffffffffffffffffffffffffffffffffff1681526020019081526020016000206004016000888152602001908152602001600020600001866040518082805190602001908083835b60208310151561176b5780518252602082019150602081019050602083039250611746565b6001836020036101000a03801982511681845116808217855250505050505090500191505090815260200160405180910390206000828254039250508190555060606118a1600660008a73ffffffffffffffffffffffffffffffffffffffff1673ffffffffffffffffffffffffffffffffffffffff16815260200190815260200160002060050160008581526020019081526020016000208054600181600116156101000203166002900480601f0160208091040260200160405190810160405280929190818152602001828054600181600116156101000203166002900480156118975780601f1061186c57610100808354040283529160200191611897565b820191906000526020600020905b81548152906001019060200180831161187a57829003601f168201915b50505050506156e6565b905083600660008a73ffffffffffffffffffffffffffffffffffffffff1673ffffffffffffffffffffffffffffffffffffffff1681526020019081526020016000206004016000898152602001908152602001600020600001826040518082805190602001908083835b602083101515611930578051825260208201915060208101905060208303925061190b565b6001836020036101000a038019825116818451168082178552505050505050905001915050908152602001604051809103902060008282540192505081905550856003826040518082805190602001908083835b6020831015156119a95780518252602082019150602081019050602083039250611984565b6001836020036101000a038019825116818451168082178552505050505050905001915050908152602001604051809103902090805190602001906119ef929190615b34565b50436005826040518082805190602001908083835b602083101515611a295780518252602082019150602081019050602083039250611a04565b6001836020036101000a0380198251168184511680821785525050505050509050019150509081526020016040518091039020819055506004866040518082805190602001908083835b602083101515611a985780518252602082019150602081019050602083039250611a73565b6001836020036101000a0380198251168184511680821785525050505050509050019150509081526020016040518091039020819080600181540180825580915050906001820390600052602060002001600090919290919091509080519060200190611b06929190615b34565b505042600660008a73ffffffffffffffffffffffffffffffffffffffff1673ffffffffffffffffffffffffffffffffffffffff168152602001908152602001600020600601826040518082805190602001908083835b602083101515611b815780518252602082019150602081019050602083039250611b5c565b6001836020036101000a03801982511681845116808217855250505050505090500191505090815260200160405180910390208190555060019150505b9695505050505050565b6040805190810160405280600581526020017f6170706c65000000000000000000000000000000000000000000000000000000815250600660008373ffffffffffffffffffffffffffffffffffffffff1673ffffffffffffffffffffffffffffffffffffffff16815260200190815260200160002060050160008081526020019081526020016000209080519060200190611c64929190615b34565b5050565b6040805190810160405280600481526020017f7365656400000000000000000000000000000000000000000000000000000000815250600660008373ffffffffffffffffffffffffffffffffffffffff1673ffffffffffffffffffffffffffffffffffffffff16815260200190815260200160002060050160008081526020019081526020016000209080519060200190611d04929190615b34565b5050565b606080600a604051908082528060200260200182016040528015611d4057816020015b6060815260200190600190039081611d2b5790505b50905082816000815181101515611d5357fe5b90602001906020020181905250600080905060008090506000600190505b600060048584815181101515611d8357fe5b906020019060200201516040518082805190602001908083835b602083101515611dc25780518252602082019150602081019050602083039250611d9d565b6001836020036101000a03801982511681845116808217855250505050505090500191505090815260200160405180910390208054905014151561200f576000925060008090505b60048584815181101515611e1a57fe5b906020019060200201516040518082805190602001908083835b602083101515611e595780518252602082019150602081019050602083039250611e34565b6001836020036101000a0380198251168184511680821785525050505050509050019150509081526020016040518091039020805490508110156120015760048584815181101515611ea757fe5b906020019060200201516040518082805190602001908083835b602083101515611ee65780518252602082019150602081019050602083039250611ec1565b6001836020036101000a038019825116818451168082178552505050505050905001915050908152602001604051809103902084815481101515611f2657fe5b906000526020600020018054600181600116156101000203166002900480601f016020809104026020016040519081016040528092919081815260200182805460018160011615610100020316600290048015611fc45780601f10611f9957610100808354040283529160200191611fc4565b820191906000526020600020905b815481529060010190602001808311611fa757829003601f168201915b50505050508583815181101515611fd757fe5b90602001906020020181905250818060010192505083806001019450508080600101915050611e0a565b508180600101925050611d71565b606060206040519081016040528060008152509050600093505b61205a858581518110151561203a57fe5b906020019060200201516020604051908101604052806000815250615715565b15156120d15761208181868681518110151561207257fe5b90602001906020020151615808565b90506120c2816040805190810160405280600181526020017f2000000000000000000000000000000000000000000000000000000000000000815250615808565b90508380600101945050612029565b8095505050505050919050565b600080600090505b600280549050811015612177578373ffffffffffffffffffffffffffffffffffffffff1660028281548110151561211957fe5b9060005260206000200160009054906101000a900473ffffffffffffffffffffffffffffffffffffffff1673ffffffffffffffffffffffffffffffffffffffff16141561216a576000915050612312565b80806001019150506120e6565b506005600660008573ffffffffffffffffffffffffffffffffffffffff1673ffffffffffffffffffffffffffffffffffffffff1681526020019081526020016000206000018190555082600660008573ffffffffffffffffffffffffffffffffffffffff1673ffffffffffffffffffffffffffffffffffffffff16815260200190815260200160002060010160006101000a81548173ffffffffffffffffffffffffffffffffffffffff021916908373ffffffffffffffffffffffffffffffffffffffff16021790555081600660008573ffffffffffffffffffffffffffffffffffffffff1673ffffffffffffffffffffffffffffffffffffffff1681526020019081526020016000206002019080519060200190612297929190615b34565b508260026001600280549050038154811015156122b057fe5b9060005260206000200160006101000a81548173ffffffffffffffffffffffffffffffffffffffff021916908373ffffffffffffffffffffffffffffffffffffffff1602179055506002805480919060010161230c9190615bb4565b50600190505b92915050565b6040805190810160405280600881526020017f6170706c656a616d000000000000000000000000000000000000000000000000815250600660008373ffffffffffffffffffffffffffffffffffffffff1673ffffffffffffffffffffffffffffffffffffffff168152602001908152602001600020600501600080815260200190815260200160002090805190602001906123b4929190615b34565b5050565b606080600a6040519080825280602002602001820160405280156123f057816020015b60608152602001906001900390816123db5790505b5090506060600a6040519080825280602002602001820160405280156124255781602001602082028038833980820191505090505b50905060608590508583600081518110151561243d57fe5b906020019060200201819052506000600190505b61247361245d836146ba565b6020604051908101604052806000815250615715565b15156124ad57612482826146ba565b915081848281518110151561249357fe5b906020019060200201819052508080600101915050612451565b60008090505b6124e485828151811015156124c457fe5b906020019060200201516020604051908101604052806000815250615715565b15156124f75780806001019150506124b3565b600080905081806001900392505060008090505b82811115156126e95760008090505b6002805490508110156126db5760006006600060028481548110151561253c57fe5b9060005260206000200160009054906101000a900473ffffffffffffffffffffffffffffffffffffffff1673ffffffffffffffffffffffffffffffffffffffff1673ffffffffffffffffffffffffffffffffffffffff16815260200190815260200160002060040160008c8152602001908152602001600020600001898487038151811015156125c857fe5b906020019060200201516040518082805190602001908083835b60208310151561260757805182526020820191506020810190506020830392506125e2565b6001836020036101000a03801982511681845116808217855250505050505090500191505090815260200160405180910390205411156126ce5760028181548110151561265057fe5b9060005260206000200160009054906101000a900473ffffffffffffffffffffffffffffffffffffffff16878481518110151561268957fe5b9060200190602002019073ffffffffffffffffffffffffffffffffffffffff16908173ffffffffffffffffffffffffffffffffffffffff168152505082806001019350505b808060010191505061251a565b50808060010191505061250b565b50600092506060602060405190810160405280600081525090505b600073ffffffffffffffffffffffffffffffffffffffff16868581518110151561272a57fe5b9060200190602002015173ffffffffffffffffffffffffffffffffffffffff161415156139e2576060866001860181518110151561276457fe5b9060200190602002015173ffffffffffffffffffffffffffffffffffffffff16878681518110151561279257fe5b9060200190602002015173ffffffffffffffffffffffffffffffffffffffff1614156130e2576128dd6040805190810160405280600881526020017f20e7949fe4baa7200000000000000000000000000000000000000000000000008152506128d8600660008b8a81518110151561280657fe5b9060200190602002015173ffffffffffffffffffffffffffffffffffffffff1673ffffffffffffffffffffffffffffffffffffffff1681526020019081526020016000206006018b60018a8a030381518110151561286057fe5b906020019060200201516040518082805190602001908083835b60208310151561289f578051825260208201915060208101905060208303925061287a565b6001836020036101000a0380198251168184511680821785525050505050509050019150509081526020016040518091039020546159db565b615808565b90506129da82600660008a898151811015156128f557fe5b9060200190602002015173ffffffffffffffffffffffffffffffffffffffff1673ffffffffffffffffffffffffffffffffffffffff1681526020019081526020016000206002018054600181600116156101000203166002900480601f0160208091040260200160405190810160405280929190818152602001828054600181600116156101000203166002900480156129d05780601f106129a5576101008083540402835291602001916129d0565b820191906000526020600020905b8154815290600101906020018083116129b357829003601f168201915b5050505050615808565b91506129e68282615808565b9150612a27826040805190810160405280600181526020017f2000000000000000000000000000000000000000000000000000000000000000815250615808565b9150612a4c8289878703815181101515612a3d57fe5b90602001906020020151615808565b9150612a8d826040805190810160405280600181526020017f2000000000000000000000000000000000000000000000000000000000000000815250615808565b9150612b2582612b2060058b898903815181101515612aa857fe5b906020019060200201516040518082805190602001908083835b602083101515612ae75780518252602082019150602081019050602083039250612ac2565b6001836020036101000a0380198251168184511680821785525050505050509050019150509081526020016040518091039020546159db565b615808565b9150612b66826040805190810160405280600181526020017f2000000000000000000000000000000000000000000000000000000000000000815250615808565b9150600073ffffffffffffffffffffffffffffffffffffffff168760028701815181101515612b9157fe5b9060200190602002015173ffffffffffffffffffffffffffffffffffffffff161415612cc757612cb582600660008a60018a01815181101515612bd057fe5b9060200190602002015173ffffffffffffffffffffffffffffffffffffffff1673ffffffffffffffffffffffffffffffffffffffff1681526020019081526020016000206002018054600181600116156101000203166002900480601f016020809104026020016040519081016040528092919081815260200182805460018160011615610100020316600290048015612cab5780601f10612c8057610100808354040283529160200191612cab565b820191906000526020600020905b815481529060010190602001808311612c8e57829003601f168201915b5050505050615808565b915081985050505050505050506139ed565b612e466040805190810160405280600881526020017f20e8bf90e8be9320000000000000000000000000000000000000000000000000815250612e41600660008b8a815181101515612d1557fe5b9060200190602002015173ffffffffffffffffffffffffffffffffffffffff1673ffffffffffffffffffffffffffffffffffffffff16815260200190815260200160002060030160008b60028b01815181101515612d6f57fe5b9060200190602002015173ffffffffffffffffffffffffffffffffffffffff1673ffffffffffffffffffffffffffffffffffffffff1681526020019081526020016000206000018b60018a8a0303815181101515612dc957fe5b906020019060200201516040518082805190602001908083835b602083101515612e085780518252602082019150602081019050602083039250612de3565b6001836020036101000a0380198251168184511680821785525050505050509050019150509081526020016040518091039020546159db565b615808565b9050612f4382600660008a89815181101515612e5e57fe5b9060200190602002015173ffffffffffffffffffffffffffffffffffffffff1673ffffffffffffffffffffffffffffffffffffffff1681526020019081526020016000206002018054600181600116156101000203166002900480601f016020809104026020016040519081016040528092919081815260200182805460018160011615610100020316600290048015612f395780601f10612f0e57610100808354040283529160200191612f39565b820191906000526020600020905b815481529060010190602001808311612f1c57829003601f168201915b5050505050615808565b9150612f4f8282615808565b9150612f90826040805190810160405280600181526020017f2000000000000000000000000000000000000000000000000000000000000000815250615808565b9150612fb88289600188880303815181101515612fa957fe5b90602001906020020151615808565b9150612ff9826040805190810160405280600181526020017f2000000000000000000000000000000000000000000000000000000000000000815250615808565b91506130948261308f600160058c8a8a0381518110151561301657fe5b906020019060200201516040518082805190602001908083835b6020831015156130555780518252602082019150602081019050602083039250613030565b6001836020036101000a038019825116818451168082178552505050505050905001915050908152602001604051809103902054016159db565b615808565b91506130d5826040805190810160405280600181526020017f2000000000000000000000000000000000000000000000000000000000000000815250615808565b91506002850194506139dc565b600073ffffffffffffffffffffffffffffffffffffffff16876001870181518110151561310b57fe5b9060200190602002015173ffffffffffffffffffffffffffffffffffffffff1614156133be5761322c82600660008a8981518110151561314757fe5b9060200190602002015173ffffffffffffffffffffffffffffffffffffffff1673ffffffffffffffffffffffffffffffffffffffff1681526020019081526020016000206002018054600181600116156101000203166002900480601f0160208091040260200160405190810160405280929190818152602001828054600181600116156101000203166002900480156132225780601f106131f757610100808354040283529160200191613222565b820191906000526020600020905b81548152906001019060200180831161320557829003601f168201915b5050505050615808565b915061326d826040805190810160405280600181526020017f2000000000000000000000000000000000000000000000000000000000000000815250615808565b9150613292828987870381518110151561328357fe5b90602001906020020151615808565b91506132d3826040805190810160405280600181526020017f2000000000000000000000000000000000000000000000000000000000000000815250615808565b915061336b8261336660058b8989038151811015156132ee57fe5b906020019060200201516040518082805190602001908083835b60208310151561332d5780518252602082019150602081019050602083039250613308565b6001836020036101000a0380198251168184511680821785525050505050509050019150509081526020016040518091039020546159db565b615808565b91506133ac826040805190810160405280600181526020017f2000000000000000000000000000000000000000000000000000000000000000815250615808565b915081985050505050505050506139ed565b60006006600089888151811015156133d257fe5b9060200190602002015173ffffffffffffffffffffffffffffffffffffffff1673ffffffffffffffffffffffffffffffffffffffff1681526020019081526020016000206006018987870381518110151561342957fe5b906020019060200201516040518082805190602001908083835b6020831015156134685780518252602082019150602081019050602083039250613443565b6001836020036101000a03801982511681845116808217855250505050505090500191505090815260200160405180910390205411156135cb576135c46040805190810160405280600881526020017f20e7949fe4baa7200000000000000000000000000000000000000000000000008152506135bf600660008b8a8151811015156134f057fe5b9060200190602002015173ffffffffffffffffffffffffffffffffffffffff1673ffffffffffffffffffffffffffffffffffffffff1681526020019081526020016000206006018b89890381518110151561354757fe5b906020019060200201516040518082805190602001908083835b6020831015156135865780518252602082019150602081019050602083039250613561565b6001836020036101000a0380198251168184511680821785525050505050509050019150509081526020016040518091039020546159db565b615808565b905061374a565b6137476040805190810160405280600881526020017f20e8bf90e8be9320000000000000000000000000000000000000000000000000815250613742600660008b8a81518110151561361957fe5b9060200190602002015173ffffffffffffffffffffffffffffffffffffffff1673ffffffffffffffffffffffffffffffffffffffff16815260200190815260200160002060030160008b60018b0181518110151561367357fe5b9060200190602002015173ffffffffffffffffffffffffffffffffffffffff1673ffffffffffffffffffffffffffffffffffffffff1681526020019081526020016000206000018b8989038151811015156136ca57fe5b906020019060200201516040518082805190602001908083835b60208310151561370957805182526020820191506020810190506020830392506136e4565b6001836020036101000a0380198251168184511680821785525050505050509050019150509081526020016040518091039020546159db565b615808565b90505b61384582600660008a8981518110151561376057fe5b9060200190602002015173ffffffffffffffffffffffffffffffffffffffff1673ffffffffffffffffffffffffffffffffffffffff1681526020019081526020016000206002018054600181600116156101000203166002900480601f01602080910402602001604051908101604052809291908181526020018280546001816001161561010002031660029004801561383b5780601f106138105761010080835404028352916020019161383b565b820191906000526020600020905b81548152906001019060200180831161381e57829003601f168201915b5050505050615808565b91506138518282615808565b9150613892826040805190810160405280600181526020017f2000000000000000000000000000000000000000000000000000000000000000815250615808565b91506138b782898787038151811015156138a857fe5b90602001906020020151615808565b91506138f8826040805190810160405280600181526020017f2000000000000000000000000000000000000000000000000000000000000000815250615808565b91506139908261398b60058b89890381518110151561391357fe5b906020019060200201516040518082805190602001908083835b602083101515613952578051825260208201915060208101905060208303925061392d565b6001836020036101000a0380198251168184511680821785525050505050509050019150509081526020016040518091039020546159db565b615808565b91506139d1826040805190810160405280600181526020017f2000000000000000000000000000000000000000000000000000000000000000815250615808565b915084806001019550505b50612704565b809750505050505050505b92915050565b6139fb6149c6565b613a0361569d565b613a6b600186606060405190810160405280603181526020017fe58c97e4baace5b8822de9a1bae991abe79fb3e997a8e5869ce4baa7e59381e681526020017f89b9e58f91e5b882e59cbae585ace58fb800000000000000000000000000000081525061446f565b50613a7585611c68565b613a97856000602060405190810160405280600081525060006064600061160c565b50613b00600285606060405190810160405280602881526020017fe58c97e4baace5b8822de6988ce5b9b3e58cbae78795e58d97e88bb9e69e9ce781526020017fa78de6a48de59bad00000000000000000000000000000000000000000000000081525061446f565b50613b0a84611bc8565b613b72600384606060405190810160405280602e81526020017fe58c97e4baace5b8822de58c97e4baace5a4a9e591a8e9a39fe59381e58aa0e581526020017fb7a5e69c89e99990e585ace58fb800000000000000000000000000000000000081525061446f565b50613b7c83613fc3565b613be4600483606060405190810160405280603181526020017fe58c97e4baace5b8822de58c97e4baace4bb99e69e9ce6ba90e7bd90e5a4b4e981526020017fa39fe59381e69c89e99990e585ace58fb800000000000000000000000000000081525061446f565b50613bee82612318565b613c56600582606060405190810160405280602481526020017fe58c97e4baace5b8822de4baace5aea2e99a86e8b685e5b88228e58f8ce9be9981526020017fe5ba97290000000000000000000000000000000000000000000000000000000081525061446f565b50613c6081612318565b613ca6858560006040805190810160405280600781526020017f736565643130310000000000000000000000000000000000000000000000000081525060506000614b9c565b50613cee8460006040805190810160405280600781526020017f7365656431303200000000000000000000000000000000000000000000000000815250603c601e600061160c565b50613d35848460006040805190810160405280600881526020017f6170706c6531303300000000000000000000000000000000000000000000000081525060146000614b9c565b50613d7d8360006040805190810160405280600881526020017f6170706c65313034000000000000000000000000000000000000000000000000815250600a601e600061160c565b50613dc4838360006040805190810160405280600c81526020017f6170706c656d617368313035000000000000000000000000000000000000000081525060146000614b9c565b50613e0c8260006040805190810160405280600c81526020017f6170706c656d6173683130360000000000000000000000000000000000000000815250600f601e600061160c565b50613e53828260006040805190810160405280600b81526020017f6170706c656a616d313037000000000000000000000000000000000000000000815250601d6000614b9c565b505050505050565b6000600282815481101515613e6c57fe5b9060005260206000200160009054906101000a900473ffffffffffffffffffffffffffffffffffffffff169050919050565b60606004836040518082805190602001908083835b602083101515613ed85780518252602082019150602081019050602083039250613eb3565b6001836020036101000a038019825116818451168082178552505050505050905001915050908152602001604051809103902082815481101515613f1857fe5b906000526020600020018054600181600116156101000203166002900480601f016020809104026020016040519081016040528092919081815260200182805460018160011615610100020316600290048015613fb65780601f10613f8b57610100808354040283529160200191613fb6565b820191906000526020600020905b815481529060010190602001808311613f9957829003601f168201915b5050505050905092915050565b6040805190810160405280600981526020017f6170706c656d6173680000000000000000000000000000000000000000000000815250600660008373ffffffffffffffffffffffffffffffffffffffff1673ffffffffffffffffffffffffffffffffffffffff1681526020019081526020016000206005016000808152602001908152602001600020908051906020019061405f929190615b34565b5050565b6000806000806140728561429e565b92509250925060018684848460405160008152602001604052604051808581526020018460ff1660ff1681526020018381526020018281526020019450505050506020604051602081039080840390855afa1580156140d5573d6000803e3d6000fd5b50505060206040510351935050505092915050565b6000600660008573ffffffffffffffffffffffffffffffffffffffff1673ffffffffffffffffffffffffffffffffffffffff16815260200190815260200160002060030160008473ffffffffffffffffffffffffffffffffffffffff1673ffffffffffffffffffffffffffffffffffffffff168152602001908152602001600020600001826040518082805190602001908083835b6020831015156141a4578051825260208201915060208101905060208303925061417f565b6001836020036101000a03801982511681845116808217855250505050505090500191505090815260200160405180910390205490509392505050565b600080601b837f0100000000000000000000000000000000000000000000000000000000000000900401905060018186866040516000815260200160405260405180807f4e03657aea45a94fc7d47ba826c8d667c0d1e6e33a64a036ec44f58fa12d6c458152506020018460ff1660ff16815260200183815260200182815260200193505050506020604051602081039080840390855afa15801561428a573d6000803e3d6000fd5b505050602060405103519150509392505050565b6000806000604184511415156142b357600080fd5b6020840151915060408401519050606084015160001a9250601b830182829250925092509193909250565b6060806020604051908101604052806000815250905060008090505b600080549050811015614467576143c28260008381548110151561431a57fe5b906000526020600020018054600181600116156101000203166002900480601f0160208091040260200160405190810160405280929190818152602001828054600181600116156101000203166002900480156143b85780601f1061438d576101008083540402835291602001916143b8565b820191906000526020600020905b81548152906001019060200180831161439b57829003601f168201915b5050505050615808565b9150614403826040805190810160405280600181526020017f2000000000000000000000000000000000000000000000000000000000000000815250615808565b915061441782614412836159db565b615808565b9150614458826040805190810160405280600181526020017f2000000000000000000000000000000000000000000000000000000000000000815250615808565b915080806001019150506142fa565b508091505090565b60008084101561448257600090506146b3565b60008090505b600280549050811015614519578373ffffffffffffffffffffffffffffffffffffffff166002828154811015156144bb57fe5b9060005260206000200160009054906101000a900473ffffffffffffffffffffffffffffffffffffffff1673ffffffffffffffffffffffffffffffffffffffff16141561450c5760009150506146b3565b8080600101915050614488565b5083600660008573ffffffffffffffffffffffffffffffffffffffff1673ffffffffffffffffffffffffffffffffffffffff1681526020019081526020016000206000018190555082600660008573ffffffffffffffffffffffffffffffffffffffff1673ffffffffffffffffffffffffffffffffffffffff16815260200190815260200160002060010160006101000a81548173ffffffffffffffffffffffffffffffffffffffff021916908373ffffffffffffffffffffffffffffffffffffffff16021790555081600660008573ffffffffffffffffffffffffffffffffffffffff1673ffffffffffffffffffffffffffffffffffffffff1681526020019081526020016000206002019080519060200190614638929190615b34565b5082600260016002805490500381548110151561465157fe5b9060005260206000200160006101000a81548173ffffffffffffffffffffffffffffffffffffffff021916908373ffffffffffffffffffffffffffffffffffffffff160217905550600280548091906001016146ad9190615bb4565b50600190505b9392505050565b60606003826040518082805190602001908083835b6020831015156146f457805182526020820191506020810190506020830392506146cf565b6001836020036101000a03801982511681845116808217855250505050505090500191505090815260200160405180910390208054600181600116156101000203166002900480601f0160208091040260200160405190810160405280929190818152602001828054600181600116156101000203166002900480156147bb5780601f10614790576101008083540402835291602001916147bb565b820191906000526020600020905b81548152906001019060200180831161479e57829003601f168201915b50505050509050919050565b600060208201519050919050565b60006060608060405190810160405280604181526020017ff4128988cbe7df8315440adde412a8955f7f5ff9a5468a791433727f82717a6781526020017f53bd71882079522207060b681fbd3f5623ee7ed66e33fc8e581f442acbcf6ab8815260200160008152509050600061485661485183600060206155a4565b6147c7565b9050600061486e614869846020806155a4565b6147c7565b9050600061487f84604060016155a4565b600081518110151561488d57fe5b9060200101517f010000000000000000000000000000000000000000000000000000000000000090047f01000000000000000000000000000000000000000000000000000000000000000290506148e58383836141e1565b94505050505090565b6000600660008573ffffffffffffffffffffffffffffffffffffffff1673ffffffffffffffffffffffffffffffffffffffff1681526020019081526020016000206004016000848152602001908152602001600020600001826040518082805190602001908083835b60208310151561497c5780518252602082019150602081019050602083039250614957565b6001836020036101000a03801982511681845116808217855250505050505090500191505090815260200160405180910390205490509392505050565b6000600280549050905090565b60016040519080825280602002602001820160405280156149fb57816020015b60608152602001906001900390816149e65790505b5060009080519060200190614a11929190615be0565b506040805190810160405280600881526020017f4170706c654a616d0000000000000000000000000000000000000000000000008152506000600160008054905003815481101515614a5f57fe5b906000526020600020019080519060200190614a7c929190615b34565b5060008054809190600101614a919190615c40565b506040805190810160405280600481526020017f62656566000000000000000000000000000000000000000000000000000000008152506000600160008054905003815481101515614adf57fe5b906000526020600020019080519060200190614afc929190615b34565b5060008054809190600101614b119190615c40565b506040805190810160405280600481526020017f706f726b000000000000000000000000000000000000000000000000000000008152506000600160008054905003815481101515614b5f57fe5b906000526020600020019080519060200190614b7c929190615b34565b5060008054809190600101614b919190615c40565b506064600181905550565b6060600660008773ffffffffffffffffffffffffffffffffffffffff1673ffffffffffffffffffffffffffffffffffffffff16815260200190815260200160002060010160009054906101000a900473ffffffffffffffffffffffffffffffffffffffff1673ffffffffffffffffffffffffffffffffffffffff16600660008973ffffffffffffffffffffffffffffffffffffffff1673ffffffffffffffffffffffffffffffffffffffff16815260200190815260200160002060010160009054906101000a900473ffffffffffffffffffffffffffffffffffffffff1673ffffffffffffffffffffffffffffffffffffffff161415614cd3576040805190810160405280601e81526020017f796f752063616e74207472616e73706f727420746f20796f757273656c660000815250905061559a565b6000831415614d19576040805190810160405280601a81526020017f796f752063616e74207472616e73706f7274206e6f7468696e67000000000000815250905061559a565b600660008773ffffffffffffffffffffffffffffffffffffffff1673ffffffffffffffffffffffffffffffffffffffff16815260200190815260200160002060000154600660008973ffffffffffffffffffffffffffffffffffffffff1673ffffffffffffffffffffffffffffffffffffffff16815260200190815260200160002060000154111515615561576000600660008973ffffffffffffffffffffffffffffffffffffffff1673ffffffffffffffffffffffffffffffffffffffff1681526020019081526020016000206004016000878152602001908152602001600020600001856040518082805190602001908083835b602083101515614e345780518252602082019150602081019050602083039250614e0f565b6001836020036101000a0380198251168184511680821785525050505050509050019150509081526020016040518091039020541415156155245782600660008973ffffffffffffffffffffffffffffffffffffffff1673ffffffffffffffffffffffffffffffffffffffff1681526020019081526020016000206004016000878152602001908152602001600020600001856040518082805190602001908083835b602083101515614efc5780518252602082019150602081019050602083039250614ed7565b6001836020036101000a03801982511681845116808217855250505050505090500191505090815260200160405180910390205411156154e75782600660008973ffffffffffffffffffffffffffffffffffffffff1673ffffffffffffffffffffffffffffffffffffffff1681526020019081526020016000206004016000878152602001908152602001600020600001856040518082805190602001908083835b602083101515614fc35780518252602082019150602081019050602083039250614f9e565b6001836020036101000a03801982511681845116808217855250505050505090500191505090815260200160405180910390206000828254039250508190555060606150f9600660008a73ffffffffffffffffffffffffffffffffffffffff1673ffffffffffffffffffffffffffffffffffffffff16815260200190815260200160002060050160008581526020019081526020016000208054600181600116156101000203166002900480601f0160208091040260200160405190810160405280929190818152602001828054600181600116156101000203166002900480156150ef5780601f106150c4576101008083540402835291602001916150ef565b820191906000526020600020905b8154815290600101906020018083116150d257829003601f168201915b50505050506156e6565b905083600660008973ffffffffffffffffffffffffffffffffffffffff1673ffffffffffffffffffffffffffffffffffffffff1681526020019081526020016000206004016000888152602001908152602001600020600001826040518082805190602001908083835b6020831015156151885780518252602082019150602081019050602083039250615163565b6001836020036101000a038019825116818451168082178552505050505050905001915050908152602001604051809103902081905550846003826040518082805190602001908083835b6020831015156151f857805182526020820191506020810190506020830392506151d3565b6001836020036101000a0380198251168184511680821785525050505050509050019150509081526020016040518091039020908051906020019061523e929190615b34565b50436005826040518082805190602001908083835b6020831015156152785780518252602082019150602081019050602083039250615253565b6001836020036101000a0380198251168184511680821785525050505050509050019150509081526020016040518091039020819055506004856040518082805190602001908083835b6020831015156152e757805182526020820191506020810190506020830392506152c2565b6001836020036101000a0380198251168184511680821785525050505050509050019150509081526020016040518091039020819080600181540180825580915050906001820390600052602060002001600090919290919091509080519060200190615355929190615b34565b505042600660008a73ffffffffffffffffffffffffffffffffffffffff1673ffffffffffffffffffffffffffffffffffffffff1681526020019081526020016000206003016000600660008b73ffffffffffffffffffffffffffffffffffffffff1673ffffffffffffffffffffffffffffffffffffffff16815260200190815260200160002060010160009054906101000a900473ffffffffffffffffffffffffffffffffffffffff1673ffffffffffffffffffffffffffffffffffffffff1673ffffffffffffffffffffffffffffffffffffffff168152602001908152602001600020600001866040518082805190602001908083835b602083101515615472578051825260208201915060208101905060208303925061544d565b6001836020036101000a0380198251168184511680821785525050505050509050019150509081526020016040518091039020819055506040805190810160405280601181526020017f7472616e73706f7274207375636365737300000000000000000000000000000081525091505061559a565b6040805190810160405280601081526020017f73686f7274206f66206163636f756e7400000000000000000000000000000000815250905061559a565b6040805190810160405280601781526020017f796f7520646f6e742068617665207468697320676f6f64000000000000000000815250905061559a565b6040805190810160405280601781526020017f77726f6e6720726f6c6520746f207472616e73706f727400000000000000000081525090505b9695505050505050565b606080826040519080825280601f01601f1916602001820160405280156155da5781602001600182028038833980820191505090505b50905060008090505b8381101561569157858582018151811015156155fb57fe5b9060200101517f010000000000000000000000000000000000000000000000000000000000000090047f010000000000000000000000000000000000000000000000000000000000000002828281518110151561565457fe5b9060200101907effffffffffffffffffffffffffffffffffffffffffffffffffffffffffffff1916908160001a90535080806001019150506155e3565b50809150509392505050565b60016040519080825280602002602001820160405280156156cd5781602001602082028038833980820191505090505b50600290805190602001906156e3929190615c6c565b50565b606060016000815480929190600101919050555061570e826157096001546159db565b615808565b9050919050565b6000816040516020018082805190602001908083835b602083101515615750578051825260208201915060208101905060208303925061572b565b6001836020036101000a03801982511681845116808217855250505050505090500191505060405160208183030381529060405280519060200120836040516020018082805190602001908083835b6020831015156157c4578051825260208201915060208101905060208303925061579f565b6001836020036101000a0380198251168184511680821785525050505050509050019150506040516020818303038152906040528051906020012014905092915050565b6060808390506060839050606081518351016040519080825280601f01601f19166020018201604052801561584c5781602001600182028038833980820191505090505b5090506060819050600080905060008090505b855181101561591257858181518110151561587657fe5b9060200101517f010000000000000000000000000000000000000000000000000000000000000090047f01000000000000000000000000000000000000000000000000000000000000000283838060010194508151811015156158d557fe5b9060200101907effffffffffffffffffffffffffffffffffffffffffffffffffffffffffffff1916908160001a905350808060010191505061585f565b5060008090505b84518110156159cc57848181518110151561593057fe5b9060200101517f010000000000000000000000000000000000000000000000000000000000000090047f010000000000000000000000000000000000000000000000000000000000000002838380600101945081518110151561598f57fe5b9060200101907effffffffffffffffffffffffffffffffffffffffffffffffffffffffffffff1916908160001a9053508080600101915050615919565b50829550505050505092915050565b60606000821415615a23576040805190810160405280600181526020017f30000000000000000000000000000000000000000000000000000000000000008152509050615b2f565b600082905060005b600082141515615a51578080600101915050600a82811515615a4957fe5b049150615a2b565b6060816040519080825280601f01601f191660200182016040528015615a865781602001600182028038833980820191505090505b50905060006001830390505b600086141515615b2757600a86811515615aa857fe5b066030017f010000000000000000000000000000000000000000000000000000000000000002828280600190039350815181101515615ae357fe5b9060200101907effffffffffffffffffffffffffffffffffffffffffffffffffffffffffffff1916908160001a905350600a86811515615b1f57fe5b049550615a92565b819450505050505b919050565b828054600181600116156101000203166002900490600052602060002090601f016020900481019282601f10615b7557805160ff1916838001178555615ba3565b82800160010185558215615ba3579182015b82811115615ba2578251825591602001919060010190615b87565b5b509050615bb09190615cf6565b5090565b815481835581811115615bdb57818360005260206000209182019101615bda9190615cf6565b5b505050565b828054828255906000526020600020908101928215615c2f579160200282015b82811115615c2e578251829080519060200190615c1e929190615d1b565b5091602001919060010190615c00565b5b509050615c3c9190615d9b565b5090565b815481835581811115615c6757818360005260206000209182019101615c669190615d9b565b5b505050565b828054828255906000526020600020908101928215615ce5579160200282015b82811115615ce45782518260006101000a81548173ffffffffffffffffffffffffffffffffffffffff021916908373ffffffffffffffffffffffffffffffffffffffff16021790555091602001919060010190615c8c565b5b509050615cf29190615dc7565b5090565b615d1891905b80821115615d14576000816000905550600101615cfc565b5090565b90565b828054600181600116156101000203166002900490600052602060002090601f016020900481019282601f10615d5c57805160ff1916838001178555615d8a565b82800160010185558215615d8a579182015b82811115615d89578251825591602001919060010190615d6e565b5b509050615d979190615cf6565b5090565b615dc491905b80821115615dc05760008181615db79190615e0a565b50600101615da1565b5090565b90565b615e0791905b80821115615e0357600081816101000a81549073ffffffffffffffffffffffffffffffffffffffff021916905550600101615dcd565b5090565b90565b50805460018160011615610100020316600290046000825580601f10615e305750615e4f565b601f016020900490600052602060002090810190615e4e9190615cf6565b5b5056fea165627a7a723058201aace00ff239fc591a5065fe5410c52534e54e76666af964beabdf9be5b970470029",
  "source": "pragma solidity ^0.5;\r\n\r\ncontract Trace_Source {\r\n\tstring[] Goods;\t\t\t\t\t        \t//id\r\n    uint goodcount;\r\n    function initGoods() public {\r\n        Goods = new string[](1);\r\n        Goods[Goods.length - 1] = \"AppleJam\";\r\n        Goods.length++;\r\n        Goods[Goods.length - 1] = \"beef\";\r\n        Goods.length++;\r\n        Goods[Goods.length - 1] = \"pork\";\r\n        Goods.length++;\r\n        goodcount = 100;\r\n    }\r\n\r\n    function good() public view returns(string memory){\r\n        string memory temp = \"\";\r\n        for(uint i = 0; i < Goods.length; i++){\r\n            temp = strConcat(temp, Goods[i]);\r\n            temp = strConcat(temp, \" \");\r\n            temp = strConcat(temp, uint2str(i));\r\n            temp = strConcat(temp, \" \");\r\n        }\r\n        return temp;\r\n    }\r\n\r\n    address[] addr;\t\t\t\t\t\t\t\t\t\t// \r\n    function initaddr() public{\r\n        addr = new address[](1);\r\n    }\r\n    \r\n    function addrindex() public view returns(uint){\r\n        return addr.length;\r\n    }\r\n\r\n    function addrvalue(uint id) public view returns(address ){\r\n        return addr[id];\r\n    }\r\n\r\n    mapping(string => string) GoodFind;                 // => \r\n    mapping(string => string[]) FindGood;               // => \r\n    mapping(string => uint) BlockNumber;                //GoodFind  BlockNumber  \r\n\r\n    function goodcheck(string memory _string)public view returns(string memory) {\r\n        return GoodFind[_string];\r\n    }\r\n\r\n    function checkgood(string memory _string, uint _id)public view returns(string memory) {\r\n        return FindGood[_string][_id];\r\n    }\r\n\r\n\tstruct Good{\r\n    \t//uint id;\t\t\t\t\t\t\t\t\t\t//\r\n    \tmapping(string => uint) GoodAmount;\t\t\t\t//\r\n    }\r\n\r\n    struct Trans{\r\n    \tmapping(string => uint) tran;\t\t\t\t\t//name => time\r\n    }\r\n\r\n    struct Node{\r\n\t\tuint role;\t\t\t\t\t\t\t\t\t\t//     \r\n\t\taddress location;\t\t\t\t\t\t\t\t//Node\r\n        string place;         \t\t\t\t\t\t\t//\r\n        mapping(address => Trans) child;    \t\t\t//  ( => )\r\n        mapping(uint => Good) good;\t\t\t\t\t\t//  { => } \r\n        mapping(uint => string) goodkind;               //node\r\n        mapping(string => uint) producted;              //node  => \r\n\r\n    }\r\n\r\n    mapping(address => Node) Nodes;                     //\r\n\r\n    function initmarket(address _address, string memory _place) public returns (uint){\r\n        for(uint i = 0; i < addr.length; i++){\r\n            if(addr[i] == _address){\r\n                return 0;\r\n            }\r\n        }\r\n        Nodes[_address].role = 5;\r\n        Nodes[_address].location = _address;\r\n        Nodes[_address].place = _place;\r\n        addr[addr.length - 1] = _address;\r\n        addr.length++;\r\n        return 1;\r\n    }\r\n\r\n    function showtran(address _address, address _to, string memory _goodname) public view returns (uint){\r\n        return Nodes[_address].child[_to].tran[_goodname];\r\n    }\r\n\r\n    function showamount(address _address, uint _goodindex, string memory _goodname) public view returns (uint){\r\n        return Nodes[_address].good[_goodindex].GoodAmount[_goodname];\r\n    }\r\n\r\n    function initgoodkind1(address _address) public{\r\n        Nodes[_address].goodkind[0] = \"seed\";\r\n    }\r\n\r\n    function initgoodkind2(address _address)public{\r\n        Nodes[_address].goodkind[0] = \"apple\";\r\n    }\r\n\r\n    function initgoodkind3(address _address)public{\r\n        Nodes[_address].goodkind[0] = \"applemash\";\r\n    }\r\n\r\n    function initgoodkind4(address _address)public{\r\n        Nodes[_address].goodkind[0] = \"applejam\";\r\n    }\r\n\r\n    function NewNode(uint _role, address _address, string memory _place) public returns (uint){\r\n        if(_role < 0){\r\n            return 0;\r\n        }\r\n        for(uint i = 0; i < addr.length; i++){\r\n            if(addr[i] == _address){\r\n                return 0;\r\n            }\r\n        }\r\n        Nodes[_address].role = _role;\r\n        Nodes[_address].location = _address;\r\n        Nodes[_address].place = _place;\r\n    \taddr[addr.length - 1] = _address;\r\n        addr.length++;\r\n        return 1;\r\n    }\r\n\r\n    function name(string memory _GoodIndex) internal returns(string memory){\r\n        goodcount++;\r\n        return strConcat(_GoodIndex, uint2str(goodcount));\r\n    }\r\n\r\n    function transport(address _from, address _to, uint _GoodIndex, string memory _GoodName, uint _account ,uint _GoodKind) public returns (string memory){\r\n    \tif(Nodes[_from].location == Nodes[_to].location)\r\n    \t\treturn \"you cant transport to yourself\";\r\n    \tif(_account == 0)\r\n    \t\treturn \"you cant transport nothing\";\r\n    \tif(Nodes[_from].role <= Nodes[_to].role){\r\n    \t\tif(Nodes[_from].good[_GoodIndex].GoodAmount[_GoodName] != 0){\r\n    \t\t\tif(Nodes[_from].good[_GoodIndex].GoodAmount[_GoodName] > _account){\r\n    \t\t\t\tNodes[_from].good[_GoodIndex].GoodAmount[_GoodName] -= _account;\r\n                    string memory _name = name(Nodes[_from].goodkind[_GoodKind]);\r\n   \t\t\t\t\tNodes[_to].good[_GoodIndex].GoodAmount[_name] = _account;\r\n                    GoodFind[_name] = _GoodName;\r\n                    BlockNumber[_name] = block.number;\r\n                    FindGood[_GoodName].push(_name);\r\n   \t\t\t\t  \tNodes[_from].child[Nodes[_to].location].tran[_GoodName] = now;\r\n   \t\t\t\t\treturn \"transport success\";\r\n    \t\t\t}\r\n    \t\t\telse \r\n    \t\t\t\treturn \"short of account\";\r\n    \t\t}\r\n    \t\telse \r\n    \t\t\treturn \"you dont have this good\";\r\n    \t}\r\n    \telse \r\n    \t\treturn \"wrong role to transport\";\r\n    }\r\n\r\n/*\r\n    function AddAmount(address _node, uint _GoodIndex, uint _account) public returns (string memory){\r\n    \tstring memory name = name(Nodes[_node].goodkind[_GoodIndex]);\r\n    \tif(Nodes[_node].good[_GoodIndex].GoodAmount[name] > 0){\r\n    \t\tNodes[_node].good[_GoodIndex].GoodAmount[name] += _account;\r\n    \t}\r\n    \telse \r\n    \t\tNodes[_node].good[_GoodIndex].GoodAmount[name] = _account;\r\n        return name;\r\n    }\r\n*/\r\n\r\n    function product(address _address, uint _GoodIndex, string memory _GoodName, uint _product, uint _good, uint _GoodId) public returns (uint){\r\n        // \r\n        if(Nodes[_address].good[_GoodIndex].GoodAmount[_GoodName] < _product){\r\n            return 0;\r\n        }\r\n        Nodes[_address].good[_GoodIndex].GoodAmount[_GoodName] -= _product;\r\n        string memory name = name(Nodes[_address].goodkind[_GoodId]);\r\n        Nodes[_address].good[_GoodIndex].GoodAmount[name] += _good;\r\n        GoodFind[name] = _GoodName;\r\n        BlockNumber[name] = block.number;\r\n        FindGood[_GoodName].push(name);\r\n        Nodes[_address].producted[name] = now;\r\n        return 1;\r\n    }\r\n\r\n    function compareStrings (string memory a, string memory b) internal view returns (bool) {\r\n         return (keccak256(abi.encodePacked((a))) == keccak256(abi.encodePacked((b))));\r\n    }\r\n\r\n    function toString(address x) internal view returns (string memory) {\r\n        bytes memory b = new bytes(20);\r\n        for (uint i = 0; i < 20; i++)\r\n            b[i] = byte(uint8(uint(x) / (2**(8*(19 - i)))));\r\n        return string(b);\r\n    }\r\n\r\n    function trace_source(string memory _GoodName, uint _GoodId) public view returns (string memory){\r\n        string[] memory path = new string[](10);\r\n        address[] memory result = new address[](10);\r\n        string memory check = _GoodName;\r\n        path[0] = _GoodName;\r\n        uint count = 1;\r\n        while(!compareStrings(goodcheck(check), \"\")){\r\n            check = goodcheck(check);\r\n            path[count] = check;\r\n            count++;\r\n        }\r\n        uint index = 0;\r\n        while(!compareStrings(path[index], \"\")){\r\n            index++;\r\n        }\r\n        uint c = 0;\r\n        index --;\r\n        for(uint j = 0; j <= index; j++){\r\n            for(uint i = 0; i < addr.length; i++){\r\n                //_GoodName\r\n                 if(Nodes[addr[i]].good[_GoodId].GoodAmount[path[index - j]] > 0){\r\n                    result[c] = addr[i];\r\n                    c++;\r\n                }\r\n            }\r\n        }\r\n        count = 0;\r\n        string memory temp = \"\";\r\n        while(result[count] != address(0)){\r\n            string memory status;\r\n            if(result[count] == result[count + 1]){\r\n                //\r\n                status = strConcat(\"  \", uint2str(Nodes[result[count]].producted[path[index - count - 1]]));\r\n                temp = strConcat(temp, Nodes[result[count]].place);\r\n                temp = strConcat(temp, status);\r\n                temp = strConcat(temp, \" \");\r\n                temp = strConcat(temp, path[index - count]);\r\n                temp = strConcat(temp, \" \");\r\n                temp = strConcat(temp, uint2str(BlockNumber[path[index - count]]));\r\n                temp = strConcat(temp, \" \");\r\n                if(result[count + 2] == address(0)){\r\n                    temp = strConcat(temp, Nodes[result[count + 1]].place);\r\n                    return temp;\r\n                }\r\n                status = strConcat(\"  \", uint2str(Nodes[result[count]].child[result[count + 2]].tran[path[index - count - 1]]));\r\n                temp = strConcat(temp, Nodes[result[count]].place);\r\n                temp = strConcat(temp, status);\r\n                temp = strConcat(temp, \" \");\r\n                temp = strConcat(temp, path[index - count - 1]);\r\n                temp = strConcat(temp, \" \");\r\n                temp = strConcat(temp, uint2str(BlockNumber[path[index - count]] + 1));\r\n                temp = strConcat(temp, \" \");\r\n                count += 2;\r\n            }\r\n            else{\r\n                //\r\n                if(result[count + 1] == address(0)){\r\n                    temp = strConcat(temp, Nodes[result[count]].place);\r\n                    temp = strConcat(temp, \" \");\r\n                    temp = strConcat(temp, path[index - count]);\r\n                    temp = strConcat(temp, \" \");\r\n                    temp = strConcat(temp, uint2str(BlockNumber[path[index - count]]));\r\n                    temp = strConcat(temp, \" \");\r\n                    return temp;\r\n                }\r\n                if(Nodes[result[count]].producted[path[index - count]] > 0){\r\n                    status = strConcat(\"  \", uint2str(Nodes[result[count]].producted[path[index - count]]));\r\n                }\r\n                else{\r\n                    status = strConcat(\"  \", uint2str(Nodes[result[count]].child[result[count + 1]].tran[path[index - count]]));\r\n                }\r\n                temp = strConcat(temp, Nodes[result[count]].place);\r\n                temp = strConcat(temp, status);\r\n                temp = strConcat(temp, \" \");\r\n                temp = strConcat(temp, path[index - count]);\r\n                temp = strConcat(temp, \" \");\r\n                temp = strConcat(temp, uint2str(BlockNumber[path[index - count]]));\r\n                temp = strConcat(temp, \" \");\r\n                count++;\r\n            }\r\n        }\r\n        return temp;\r\n    }\r\n\r\n    function strConcat(string memory _a, string memory _b) internal pure returns (string memory){\r\n        bytes memory _ba = bytes(_a);\r\n        bytes memory _bb = bytes(_b);\r\n        string memory ret = new string(_ba.length + _bb.length);\r\n        bytes memory bret = bytes(ret);\r\n        uint k = 0;\r\n        for (uint i = 0; i < _ba.length; i++)\r\n            bret[k++] = _ba[i];\r\n        for (uint i = 0; i < _bb.length; i++) \r\n            bret[k++] = _bb[i];\r\n        return string(ret);\r\n   }  \r\n\r\n    function uint2str(uint _i) internal pure returns (string memory _uintAsString) {\r\n        if (_i == 0) {\r\n            return \"0\";\r\n        }\r\n        uint j = _i;\r\n        uint len;\r\n        while (j != 0) {\r\n            len++;\r\n            j /= 10;\r\n        }\r\n        bytes memory bstr = new bytes(len);\r\n        uint k = len - 1;\r\n        while (_i != 0) {\r\n            bstr[k--] = byte(uint8(48 + _i % 10));\r\n            _i /= 10;\r\n        }\r\n        return string(bstr);\r\n    }\r\n\r\n    function source(string memory _GoodName) public view returns (string memory){\r\n        string[] memory s = new string[](10);\r\n        s[0] = _GoodName;\r\n        uint i = 0;\r\n        uint count = 0;\r\n        uint index = 1;\r\n        while(FindGood[s[count]].length != 0){\r\n            i = 0;\r\n            for(uint j = 0; j < FindGood[s[count]].length; j++){\r\n                s[index] = FindGood[s[count]][i];\r\n                index++;\r\n                i++;\r\n            }\r\n            count++;\r\n        }\r\n        string memory result = \"\";\r\n        i = 0;\r\n        while(!compareStrings(s[i], \"\")){\r\n            result = strConcat(result, s[i]);\r\n            result = strConcat(result, \" \");\r\n            i++;\r\n        }\r\n        return result;\r\n    }\r\n\r\n    function splitSignature(bytes memory sig) public pure returns(uint8 v, bytes32 r, bytes32 s){\r\n        require(sig.length == 65);\r\n        assembly {\r\n            // first 32 bytes, after the length prefix.\r\n            r := mload(add(sig, 32))\r\n            // second 32 bytes.\r\n            s := mload(add(sig, 64))\r\n            // final byte (first byte of the next 32 bytes).\r\n            v := byte(0, mload(add(sig, 96)))\r\n        }\r\n\r\n        return (v+27, r, s);\r\n    }\r\n\r\n    function recoverSigner(bytes32 message, bytes memory sig) public pure returns (address){\r\n        (uint8 v, bytes32 r, bytes32 s) = splitSignature(sig);\r\n        return ecrecover(message, v, r, s);\r\n    }\r\n\r\n\r\n    function tiaoshi(address _address1, address _address2, address _address3, address _address4, address _address5) public{\r\n        initGoods();\r\n        initaddr();\r\n        NewNode(1, _address1, \"-\");\r\n        initgoodkind1(_address1);\r\n        product(_address1, 0, \"\", 0, 100, 0);\r\n   //   AddAmount(_address1, 0, 100);\r\n        NewNode(2, _address2, \"-\");\r\n        initgoodkind2(_address2);\r\n        NewNode(3, _address3, \"-\");\r\n        initgoodkind3(_address3);\r\n        NewNode(4, _address4, \"-\");\r\n        initgoodkind4(_address4);\r\n        NewNode(5, _address5, \"-()\");\r\n        initgoodkind4(_address5);\r\n\r\n        transport(_address1, _address2, 0, \"seed101\", 80, 0);\r\n        product(_address2, 0, \"seed102\", 60, 30, 0);\r\n        transport(_address2, _address3, 0, \"apple103\", 20, 0);\r\n        product(_address3, 0, \"apple104\", 10, 30, 0);\r\n        transport(_address3, _address4, 0, \"applemash105\", 20, 0);\r\n        product(_address4, 0, \"applemash106\", 15, 30, 0);\r\n        transport(_address4, _address5, 0, \"applejam107\", 29, 0);\r\n    }\r\n\r\n\r\n    function decode() public returns (address){\r\n        bytes memory signedString =hex\"f4128988cbe7df8315440adde412a8955f7f5ff9a5468a791433727f82717a6753bd71882079522207060b681fbd3f5623ee7ed66e33fc8e581f442acbcf6ab800\";\r\n        bytes32  r = bytesToBytes32(slice(signedString, 0, 32));\r\n        bytes32  s = bytesToBytes32(slice(signedString, 32, 32));\r\n        byte  v = slice(signedString, 64, 1)[0];\r\n        return ecrecoverDecode(r, s, v);\r\n  }\r\n\r\n    function slice(bytes memory data, uint start, uint len) public returns (bytes memory){\r\n        bytes memory b = new bytes(len);\r\n        for(uint i = 0; i < len; i++){\r\n            b[i] = data[i + start];\r\n        }\r\n    return b;\r\n  }\r\n\r\n    function ecrecoverDecode(bytes32 r, bytes32 s, byte v1) public returns (address addr){\r\n        uint8 v = uint8(v1) + 27;\r\n        addr = ecrecover(hex\"4e03657aea45a94fc7d47ba826c8d667c0d1e6e33a64a036ec44f58fa12d6c45\", v, r, s);\r\n  }\r\n    \r\n    function bytesToBytes32(bytes memory source) public returns (bytes32 result) {\r\n        assembly {\r\n        result := mload(add(source, 32))\r\n    }\r\n  }\r\n}",
  "sourcePath": "D:/LYG////contract/contracts/trace_source.sol",
  "compiler": {
    "name": "solc",
    "version": "0.5.0+commit.1d4f565a.Emscripten.clang"
  },
  "schemaVersion": "3.0.6",
  "updatedAt": "2019-07-01T07:03:49.042Z",
  "devdoc": {
    "methods": {}
  },
  "userdoc": {
    "methods": {}
  }
}